:020000040800F2
:10000000F00F0020DD0A0008CD020008CF02000832
:10001000D3020008D7020008DB020008000000003D
:10002000000000000000000000000000DF020008E7
:10003000E102000800000000E3020008E5020008F9
:10004000F70A0008F70A0008F70A0008F70A00088C
:10005000F70A0008F70A0008F70A0008F70A00087C
:10006000F70A0008F70A0008F70A0008F70A00086C
:10007000F70A0008F70A0008F70A0008F70A00085C
:10008000F70A0008F70A0008F70A0008F70A00084C
:10009000F70A0008F70A0008F70A0008F70A00083C
:1000A000F70A0008F70A0008F70A0008F70A00082C
:1000B000F70A0008F70A0008F70A0008F70A00081C
:1000C000F70A0008F70A0008F70A0008F70A00080C
:1000D000F70A0008EF090008F70A0008F70A000805
:1000E000F70A0008F70A0008F70A000800F002F80B
:1000F00000F072F80AA090E8000C82448344AAF150
:100100000107DA4501D100F067F8AFF2090EBAE84D
:100110000F0013F0010F18BFFB1A43F0010318473B
:10012000D8320000F832000010F8013B0A4413F006
:10013000030408BF10F8014B1D1108BF10F8015B44
:10014000641E05D010F8016B641E01F8016BF9D133
:10015000002D15D010F8014B03F00C030C2BA1EB74
:1001600004040ABF10F8013BA4EB8314A4EB03249E
:1001700005F1010314F8016B5B1E01F8016BF9D561
:10018000914238BF10F8013BD1D3704700230024BF
:1001900000250026103A28BF78C1FBD8520728BF97
:1001A00030C148BF0B607047642902F01384752981
:1001B00002F01084732902F01085002070471FB5EB
:1001C00002F036FE04000020002102F04DFE401C2B
:1001D00060601FBD10B510BD02F005FE1146FFF7AF
:1001E000EEFF00F009F802F035FE03B4FFF7F2FF6E
:1001F00003BC00F03DFB000000F0E5F84FF4E130F7
:1002000000F045FB00F060F908A002F079FB0FA0B8
:1002100002F076FB17A002F073FB1DA002F070FB4A
:1002200024A002F06DFB00BFFEE700004441432024
:1002300057617665666F726D2047656E6572617491
:100240006F72205265616479210D0A00436F6D6DF4
:10025000616E64733A20574156453A53494E452CD6
:100260005351554152452C545249414E474C450D2E
:100270000A0000002020202020202020202046529C
:1002800045513A3130302D35303030300D0A0000D4
:1002900020202020202020202020445554593A316D
:1002A0002D3130302028666F722073717561726550
:1002B000290D0A0020202020202020202020414D30
:1002C000503A312D3130300D0A000000704700BF28
:1002D000FEE700BFFEE700BFFEE700BFFEE7704796
:1002E00070477047704700000CB5002001900090E7
:1002F0006C48006840F480306A49086000BF694873
:10030000006800F4003000900198401C01900098B3
:1003100018B90198B0F5A06FF1D16248006800F4F7
:10032000003010B10120009001E000200090009802
:10033000012843D15C48006840F010005A49086029
:100340000846006820F0030008600846006840F096
:1003500002000860534840685249486008464068B7
:1003600048600846406840F480604860084640683D
:1003700020F47C1048600846406840F4E81048606B
:100380000846006840F08070086000BF454800687B
:1003900000F000700028F9D04248406820F00300C7
:1003A000404948600846406840F00200486000BF8D
:1003B0003C48406800F00C000828F9D10CBD10B58D
:1003C000FFF792FF10BD10B53648006840F00100FD
:1003D000344908600846406834490840314948605B
:1003E00008460068324908402E49086008460068FF
:1003F00020F4802008600846406820F4FE00486031
:100400004FF41F008860FFF7DAFF4FF000602949C2
:10041000086010BD10B5002100200022214B5B6850
:1004200003F00C0121B1042906D0082928D107E0E6
:10043000214B224C236027E01F4B204C236023E0FC
:10044000184B5B6803F47010164B5B6803F4803242
:10045000022303EB904022B9194B4343174C23600E
:100460000DE0104B5B6803F4003323B1144B43439E
:10047000124C236003E0104B4343104C236003E015
:100480000D4B0E4C236000BF00BF064B5B68C3F3EF
:1004900003130C4CE15C094B1B68CB40074C2360F9
:1004A00010BD000000100240002002400000FFF8D4
:1004B000FFFFF6FE08ED00E000127A0000000020C9
:1004C00000093D000400002000B591B00121042086
:1004D00000F040FE0121480700F049FE0121022002
:1004E00000F02BFE0121084600F041FE00208DF8AF
:1004F00043001020ADF8400003208DF8420010A901
:10050000B14800F06BFB002211464FF0804001F033
:10051000CEFDAE48008881B24FF0804001F0B6FFBA
:100520002021480601F095FF24200C9000200D901A
:100530000E900F900CA902F026F9A54801908015A5
:10054000079000200590A34802904FF48060089027
:1005500080200690102003904020049020200990D5
:10056000C0010A9000200B9001A99B4802F078F886
:100570000121880701F0F4FC0121974802F09BF863
:100580000121002002F01CF90121002002F029F9CC
:1005900011B000BD10B5044690480078844200D1E7
:1005A00010BD0021084602F00BF900218A4802F034
:1005B00082F824B1012C09D0022C17D10EE0854815
:1005C000874908604020874908800FE086488449B1
:1005D00008604FF400708349088007E08348804931
:1005E00008604FF400707F49088000BF00BF002101
:1005F000794802F060F87B4800887749091D086057
:100600007748006874490C3108600121724802F093
:1006100052F80121002002F0D3F8704804702146FE
:1006200073A002F06DF900BFBAE72DE9F04104466E
:1006300000250026002704B90124724D694800886E
:1006400004FB00F6B5FBF6F0471EB9B2680501F0F1
:100650001DFF21466CA002F053F9BDE8F08170B592
:10066000054600240026642D00DD64255B480078E3
:10067000012803D069A002F043F970BD59480088F1
:100680006843642190FBF1F086B200240CE0B44290
:1006900005DA40F6FF70544921F8140003E0002009
:1006A000514921F81400641C4E4800888442EEDB56
:1006B0000120FFF76FFF294660A002F021F900BF7B
:1006C000DBE72DE9F047054600240026A146642D0E
:1006D00000DD64250021084602F072F800213E4842
:1006E00001F0E9FF284602F031FD0746584902F0C3
:1006F00033FC06463146574802F03CFD074602F0FF
:10070000EDFC1FFA80F93548007820B1012820D08F
:1007100002284AD132E0002416E02E4931F81410A4
:10072000A1F5006002F0FAFC8246314602F022FD9B
:1007300080464FF08A4102F0ADFB074602F0CEFC46
:10074000244921F81400641C264800888442E4DB14
:100750002BE000240DE0244830F8140040F6FF712F
:10076000884201D1484600E000201F4921F81400CA
:10077000641C1C4800888442EDDB16E000240FE076
:100780001A4931F8140002F0E1FC8046314602F0CB
:10079000F1FC074602F0A2FC144921F81400641C85
:1007A000104800888442EBDB00BF00BF01210A48EB
:1007B00001F081FF0121002002F002F8294626A065
:1007C00002F09EF8BDE8F08700080140980800207C
:1007D0000874004014000020300402409C080020EF
:1007E000A0080020A4080020940400209400002009
:1007F00057617665206368616E6765643A20256499
:100800000D0A000000A24A044672657120736574E7
:100810003A20257520487A0D0A0000004475747945
:10082000206F6E6C7920666F7220737175617265CE
:100830002077617665210D0A000000004475747907
:10084000207365743A20256425250D0A00000000F8
:100850000000C84200F07F45416D706C697475649A
:1008600065207365743A20256425250D0A00000073
:1008700001460020704700BF824A128802F0400201
:10088000002AF9D0C2B27F4B1B1D1A80704710B5E9
:1008900086B00446012144F2040000F05BFC4FF4F2
:1008A0000070ADF8140003208DF8160018208DF8A4
:1008B000170005A9744800F091F94FF48060ADF875
:1008C000140004208DF8170005A96F4800F086F980
:1008D00025208DF8000003208DF801008DF802001E
:1008E00001208DF80300684600F0A1FE019400206D
:1008F000ADF80800ADF80A00ADF80C00ADF8100036
:100900000C20ADF80E0001A95E4800F0CAFC0122DF
:1009100040F225515B4800F05CFD0121594800F090
:100920004CFD06B010BD2DE9F04704460025002619
:100930000027A846A946214654A001F0E1FF56A190
:10094000204602F091F8054653A1002002F08CF8F1
:100950000646002D49D0002E47D050A1284602F06F
:1009600089F8D0B94FA1304602F084F818B90020B8
:10097000FFF710FE39E04DA1304602F07BF818B9C0
:100980000120FFF707FE30E04AA1304602F072F87E
:1009900058BB0220FFF7FEFD27E049A1284602F0E0
:1009A00069F838B9304602F051F807463846FFF783
:1009B0003CFE1AE044A1284602F05CF840B93046FB
:1009C00002F044F800F0FF084046FFF748FE0CE054
:1009D0003FA1284602F04EF838B9304602F036F80A
:1009E00000F0FF094846FFF76CFEBDE8F08710B540
:1009F00040F22551234800F0D1FD002840D0214885
:100A000000F04CFDC4B23348008800F4004028BB1D
:100A10003048008800F48040C0B10A2C03D0002088
:100A20002C4908802CE02B48008840F400402949DC
:100A3000088000200988C1F30D01274A5054104650
:100A4000FFF771FF00202349088019E00D2C06D123
:100A50002048008840F480401E49088010E01D486E
:100A60000088C0F30D001C490C541A480088401C33
:100A70001849088008460088C72801DD0020088042
:100A800010BD00000038014000080140434D443AC9
:100A90002025730D0A0000003A000000574156451A
:100AA0000000000053494E450000000053515541DD
:100AB00052450000545249414E474C450000000049
:100AC00046524551000000004455545900000000B2
:100AD000414D5000AC080020C8080020094880475C
:100AE00009480047FEE7FEE7FEE7FEE7FEE7FEE710
:100AF000FEE7FEE7FEE7FEE704480549054A064B28
:100B000070470000C7030008ED000008F00900204E
:100B1000F00F0020F00B0020F00B002010B5044671
:100B2000CC48844208D10121042000F02DFB002193
:100B3000042000F029FB46E0C748844208D1012187
:100B4000082000F021FB0021082000F01DFB3AE006
:100B5000C248844208D10121102000F015FB002179
:100B6000102000F011FB2EE0BD48844208D1012185
:100B7000202000F009FB0021202000F005FB22E0EE
:100B8000B848844208D10121402000F0FDFA00213C
:100B9000402000F0F9FA16E0B348844208D1012160
:100BA000802000F0F1FA0021802000F0EDFA0AE048
:100BB000AE48844207D10121801500F0E5FA0021FA
:100BC000A01500F0E1FA10BD10B50121084600F0B3
:100BD000DBFA0021012000F0D7FA10BD2DE9F04129
:100BE000024600250026002000230024002791F85B
:100BF00003C00CF00F0591F803C00CF0100CBCF111
:100C0000000F03D091F802C04CEA050591F800C02E
:100C1000BCF1000F31D0146800202BE04FF0010C24
:100C20000CFA00F3B1F800C00CEA03069E4220D192
:100C300083004FF00F0C0CFA03F7BC4305FA03FCDA
:100C40004CEA040491F803C0BCF1280F06D14FF020
:100C5000010C0CFA00FCC2F814C00AE091F803C0C1
:100C6000BCF1480F05D14FF0010C0CFA00FCC2F8A2
:100C700010C0401C0828D1D31460B1F800C0BCF1EA
:100C8000FF0F34DD546800202EE000F1080C4FF017
:100C9000010808FA0CF3B1F800C00CEA03069E4202
:100CA00021D183004FF00F0C0CFA03F7BC4305FA77
:100CB00003FC4CEA040491F803C0BCF1280F05D1F1
:100CC00000F1080C08FA0CF8C2F8148091F803C07F
:100CD000BCF1480F07D100F1080C4FF0010808FAE9
:100CE0000CF8C2F81080401C0828CED35460BDE830
:100CF000F0814FF6FF710180022181700421C170E3
:100D000070470246002093680B400BB1012000E0C1
:100D1000002070470146886880B270470246002074
:100D2000D3680B400BB1012000E000207047014662
:100D3000C86880B2704701617047416170470AB16D
:100D4000016100E041617047C16070474FF480323B
:100D50000A438261816182618269826970470246C9
:100D60000020434B18684FF68073184040EA021089
:100D700008433F4B186070473E49C8617047F0B563
:100D80000A46002300240021002500F00046B6F1A9
:100D9000004F02D1364EF16901E0354E7168C0F363
:100DA000034583B200F44016B6F5401F08D121F088
:100DB00070612F4E766826F070662D4F7E6012E0CF
:100DC00000F48016B6F5801F06D1032606FA05F456
:100DD000A14341F0706106E0460D360103FA06F6C4
:100DE000B14341F0706122B1460D360103FA06F6B7
:100DF000314300F00046B6F1004F02D11C4EF161C4
:100E000001E01B4E7160F0BD30B500228B071C0F56
:100E10000F2303FA04F2164B08338C1053F82430D6
:100E20009343134C08348D1044F8253023468C101E
:100E300053F824308C07240F00FA04F423430C4C9D
:100E400008348D1044F8253030BD0A49DC31086083
:100E50007047000000080140000C014000100140F4
:100E60000014014000180140001C01400020014016
:100E70000000014000002042DF48006840F001000F
:100E8000DD49086008464068DC490840DA494860A6
:100E900008460068DA490840D749086008460068F3
:100EA00020F4802008600846406820F4FE00486076
:100EB0004FF41F0088607047CF49096821F48031E2
:100EC000CD4A11601146096821F480211160B0F506
:100ED000803F03D0B0F5802F0ED106E0C6490968E7
:100EE00041F48031C44A116007E0C349096841F404
:100EF000A021C14A116000E000BF00BF704710B5DB
:100F000001460022002300204A11012A02D1BA4CD6
:100F1000236806E0022A02D1B74C236A01E0B64CEE
:100F2000636A01F01F02012494401C400CB10120AF
:100F300000E0002010BD38B50020009000240025FE
:100F400000BF3120FFF7DBFF05460098401C0090F2
:100F50000098B0F5A06F01D0002DF2D03120FFF73E
:100F6000CEFF08B1012400E00024204638BD014630
:100F70000020A14A106820F0F80040EAC10010608B
:100F80007047A04908607047024600209A4B586895
:100F900020F47C1042EA01031843974B58607047D5
:100FA00098490866704701460020934A506820F02F
:100FB00003000843506070478F48406800F00C0001
:100FC0007047014600208C4A506820F0F00008432A
:100FD0005060704701460020874A506820F4E06066
:100FE00008435060704701460020834A506820F44F
:100FF000605040EAC1005060704729B17E4A527A81
:1010000002437D4B5A7204E07B4A527A82437A4B08
:101010005A7270477B49D8310860704701460020FA
:10102000754A506820F440400843506070470021E2
:10103000714A20321170704A82F82010012802D0C3
:1010400004280AD104E001216B4A2032117005E026
:101050000521694A2032117000E000BF00BF7047CF
:101060006949086070476449096A0143624A11622C
:101070007047654944390860704730B50021002247
:10108000002400235C4D6D6805F00C0121B104299A
:1010900005D0082923D105E05C4D056022E05B4DB9
:1010A00005601FE0544D6D6805F47012524D6D6877
:1010B00005F48034022505EB92421CB9544D55438A
:1010C00005600BE04C4D6D6805F400351DB1504DC9
:1010D0005543056002E04D4D5543056002E04B4D20
:1010E000056000BF00BF444D6D6805F0F0010909BF
:1010F000484D6B5C0568DD4045603F4D6D6805F40B
:10110000E061090A434D6B5C4568DD4085603A4DFE
:101110006D6805F46051C90A3E4D6B5C4568DD4061
:10112000C560354D6D6805F44041890B3A4D6B5CE7
:10113000C568B5FBF3F5056130BD29B12E4A52698A
:1011400002432D4B5A6104E02B4A526982432A4BD9
:101150005A61704729B1284A92690243264B9A6125
:1011600004E0254A92698243234B9A61704729B172
:10117000214AD2690243204BDA6104E01E4AD26957
:1011800082431D4BDA61704729B11B4AD268024382
:10119000194BDA6004E0184AD2688243164BDA60D1
:1011A000704729B1144A12690243134B1A6104E0D3
:1011B000114A12698243104B1A6170471249403933
:1011C000086070470F49C86470470B49C871704781
:1011D0000948406A40F080700749486270470146FC
:1011E0000020054A92680A400AB1012000E0002070
:1011F0007047014988727047001002400000FFF8F4
:10120000FFFFF6FE000042428004424200127A00D4
:1012100000093D00AF080020BF08002010B50446BB
:10122000FB48844209D101218803FFF7ADFF00216B
:101230004FF48040FFF7A8FF32E0F648844209D11E
:1012400001214804FFF7ADFF00214FF40030FFF704
:10125000A8FF25E0F048844209D101218804FFF766
:10126000A0FF00214FF48020FFF79BFF18E0EB4820
:10127000844209D10121C804FFF793FF00214FF4F4
:101280000020FFF78EFF0BE0E548844208D10121E2
:101290000805FFF786FF00214FF48010FFF781FF5C
:1012A00010BD2DE9F04786B005460E460024A24643
:1012B00000BFA1460027B08900B100BF2F462C8A8D
:1012C0004CF6FF700440F08804432C82AC894EF643
:1012D000F3100440B08831890843718908430443FE
:1012E000AC81AC8A4FF6FF400440B0890443AC8225
:1012F00001A8FFF7C2FEC648874202D1DDF810A060
:1013000001E0DDF80CA0A88900F4004040B10AEB30
:10131000CA0000EB0A1031684900B0FBF1F807E0A1
:101320000AEBCA0000EB0A1031688900B0FBF1F843
:101330006420B8FBF0F004012009642101FB10894E
:10134000A88900F4004040B1322000EBC900B0FB96
:10135000F1F000F00700044308E0322000EB091030
:101360006421B0FBF1F000F00F0004432C8106B0C3
:10137000BDE8F0874FF41651016000218180C180E3
:1013800001810C21418100218181704710B5024605
:101390000020108A4FF2FF0318400B884C8823432B
:1013A0008C882343CC8823431843108210BD00212E
:1013B000018041808180C180704721B1828942F4DF
:1013C0000052828104E082894DF6FF731A408281C7
:1013D0007047F0B50346002400260025002040F6A3
:1013E0006A17B94200D100BF1846C1F3421401F098
:1013F0001F06012707FA06F5012C01D10C3004E085
:10140000022C01D1103000E014301AB107682F43CC
:10141000076002E00768AF430760F0BD1AB1838A36
:101420000B43838202E0838A8B4383827047028A64
:101430004FF6F0731A400282028A0A430282704712
:1014400082894FF2FF731A40828182890A43828126
:10145000704721B1828942F00202828104E08289D0
:101460004FF6FD731A4082817047028A4FF6DF7390
:101470001A400282028A0A430282704721B1028A1C
:1014800042F48042028204E0028A4BF6FF731A4063
:1014900002827047C1F30802828070470146888843
:1014A000C0F308007047818941F0010181817047D4
:1014B000028BD2B20283028B42EA0122028370477E
:1014C000028B02F47F420283028B0A43028370473D
:1014D00021B1828A42F02002828204E0828A4FF6A1
:1014E000DF731A408282704721B1828A42F0100273
:1014F000828204E0828A4FF6EF731A40828270473C
:1015000021B1828A42F00802828204E0828A4FF688
:10151000F7731A408282704721B1828942F40042F7
:10152000828103E08289C2F30E028281704721B179
:10153000828A42F40062828204E0828A4FF2FF7360
:101540001A4082827047828A4FF6FB731A40828269
:10155000828A0A438282704721B1828A42F0020263
:10156000828204E0828A4FF6FD731A4082827047BD
:1015700002460020B1F5007F00D100BF13880B4068
:101580000BB1012000E00020704701F40072B2F5B9
:10159000007F00D100BFCA430280704770B5024689
:1015A000002400230025002040F66A16B14200D135
:1015B00000BFC1F3421501F01F03012606FA03F331
:1015C000012D02D19689334006E0022D02D1168A00
:1015D000334001E0968A33400C12012606FA04F4E7
:1015E0001688344013B10CB1012000E0002070BD1A
:1015F00010B50022002340F66A14A14200D100BFBA
:101600000A1201249440A3B2DC43048010BD000000
:10161000003801400044004000480040004C0040B9
:101620000050004031490143314A1160704770B5A4
:10163000002100230F22C47804B32D4C246804F445
:10164000E064C4F5E064210AC1F10403CA404478AF
:1016500004FA03F18478144021430901254C0678EB
:10166000A155047804F01F050124AC4005786D11E4
:10167000AD0005F1E025C5F8004109E0047804F06B
:101680001F050124AC401C4D0678761145F8264014
:1016900070BD1A4A0A400243154B1B1F1A6070475F
:1016A00039B1134A121D12680243114B1B1D1A60F7
:1016B00006E00F4A121D126882430D4B1B1D1A6073
:1016C0007047042808D14FF0E021096941F0040176
:1016D0004FF0E022116107E04FF0E021096921F0AD
:1016E00004014FF0E0221161704700000000FA058C
:1016F0000CED00E000E400E080E100E080FFFF1F6F
:1017000010B50446FE48844208D10121C014FFF7F9
:101710003BFD0021E014FFF737FDC4E0B4F1804F3A
:1017200008D101210846FFF73CFD00210120FFF709
:1017300038FDB8E0F348844208D101210220FFF7C8
:1017400030FD00210220FFF72CFDACE0EE48844282
:1017500008D101210420FFF724FD00210420FFF718
:1017600020FDA0E0E948844208D101210820FFF7CC
:1017700018FD00210820FFF714FD94E0E44884429E
:1017800008D101211020FFF70CFD00211020FFF7E8
:1017900008FD88E0DF48844208D101212020FFF7BE
:1017A00000FD00212020FFF7FCFC7CE0DA488442A9
:1017B00008D101214014FFF7E7FC00216014FFF776
:1017C000E3FC70E0D548844209D10121C804FFF749
:1017D000DBFC00214FF40020FFF7D6FC63E0D0488B
:1017E000844209D101210805FFF7CEFC00214FF406
:1017F0008010FFF7C9FC56E0CA48844209D1012194
:101800004805FFF7C1FC00214FF40010FFF7BCFCB6
:1018100049E0C548844208D101214020FFF7C1FCBE
:1018200000214020FFF7BDFC3DE0C048844208D1C4
:1018300001218020FFF7B5FC00218020FFF7B1FCDB
:1018400031E0BB48844208D101218015FFF7A9FC93
:101850000021A015FFF7A5FC25E0B648844209D178
:1018600001210804FFF790FC00214FF48030FFF7BE
:101870008BFC18E0B048844209D101214804FFF7ED
:1018800083FC00214FF40030FFF77EFC0BE0AB48F7
:10189000844208D101218804FFF776FC00214FF42F
:1018A0008020FFF771FC10BD00220288944B984203
:1018B0000ED0994B98420BD0B0F1804F08D0914B8D
:1018C000984205D0904B984202D0904B984204D158
:1018D0004FF68F731A404B881A438D4B984207D0AE
:1018E0008C4B984204D04FF6FF431A40CB881A43E2
:1018F00002808B8883850B880385814B98420BD0AF
:10190000854B984208D08B4B984205D08A4B984221
:1019100002D08A4B984201D10B7A0386012383823D
:10192000704770B5002400220023058C4FF6FE7628
:1019300035400584028C8388048B4FF68F752C40CC
:10194000B51E2C400D882C43751E2A400D892A4354
:101950004D882A436A4DA8420BD06F4DA84208D04B
:10196000744DA84205D0744DA84202D0734DA842D0
:1019700013D14FF6F7752A404D892A434FF6FB7570
:101980002A408D882A434FF6FF652B404FF6FF55BE
:101990002B408D892B43CD892B4383800483CD88B5
:1019A0008586028470BD70B5002400220023058C5A
:1019B0004FF6EF7635400584028C8388048B48F619
:1019C000FF752C404FF6FF452C400D884FF6FF76F3
:1019D00006EA05252C434FF6DF752A400D8906EAF5
:1019E00005152A434D8806EA05152A43444DA842A9
:1019F00002D0494DA8421DD14FF67F752A404D892E
:101A00004FF6FF7606EA05152A434FF6BF752A40C2
:101A10008D8806EA05152A434FF6FF352B404FF215
:101A2000FF752B408D8906EA85052B43CD8906EA93
:101A300085052B4383800483CD880587028470BD90
:101A400070B5002400220023058C4FF6FF66354058
:101A50000584028C8388848B4FF68F752C404FF65B
:101A6000FC752C400D882C434FF6FF552A400D89FC
:101A70004FF6FF7606EA05252A434D8806EA052536
:101A80002A431F4DA84202D0234DA8421DD14FF238
:101A9000FF752A404D894FF6FF7606EA05252A4351
:101AA0004FF6FF352A408D8806EA05252A434EF673
:101AB000FF752B404DF6FF752B408D8906EA051505
:101AC0002B43CD8906EA05152B4383808483CD887B
:101AD0008587028470BD70B5002200230024058C28
:101AE0004EF6FF7635400584038C8488828B48F659
:101AF000FF752A404FF6FF452A400D8820E0000080
:101B0000002C01400004004000080040000C004090
:101B1000001000400014004000340140004C01401F
:101B2000005001400054014000180040001C0040DB
:101B300000200040004001400044014000480140B6
:101B40004FF6FF7606EA05252A434DF6FF752B4032
:101B50000D8906EA05352B434D8806EA05352B43EA
:101B6000FA4DA84202D0FA4DA84208D14BF6FF75B3
:101B70002C408D894FF6FF7606EA85152C4384802C
:101B80008283CD88A0F84050038470BD828B4FF2D1
:101B9000FF331A408283828B4FF6FF7303EA0123DF
:101BA0001A4382837047F0B50C4615460022002187
:101BB0000026078C4EF6FF7C07EA0C070784828B11
:101BC000018C4FF6FF7707EA043640F6FF473A40AC
:101BD0004FF6FF7707EA05273A434FF6FF7707EA04
:101BE00003373A43D94FB8420ED0D94FB8420BD041
:101BF000B0F1804F08D0D74FB84205D0D64FB84289
:101C000002D0D64FB84206D14DF6FF77394046F4A0
:101C10008057394305E047F6FF57394044F4805771
:101C2000394382830184F0BD828B4FF6F3731A40EF
:101C30008283828B0A4382837047F0B50C46154637
:101C4000002200210026078C4FF6FF6C07EA0C07E4
:101C50000784828B018C4FF6FF7707EA04264FF644
:101C60000C773A404FF6FF7707EA03172F433A43C2
:101C7000B64FB8420ED0B64FB8420BD0B0F1804F3D
:101C800008D0B44FB84205D0B34FB84202D0B34FDA
:101C9000B84206D14FF6FF57394046F480773943B2
:101CA00005E04FF2FF57394044F48077394382838F
:101CB0000184F0BD028B4FF2FF331A400283028B86
:101CC0004FF6FF7303EA01231A4302837047F0B50E
:101CD0000C461546002200210026078C4FF6EF7CAB
:101CE00007EA0C070784028B018C4FF6FF7707EA9F
:101CF000041640F6FF473A404FF6FF7707EA0337EE
:101D00003A434FF6FF7707EA05273A438F4FB84229
:101D10000ED08F4FB8420BD0B0F1804F08D08D4F0E
:101D2000B84205D08C4FB84202D08C4FB84206D191
:101D30004FF6DF77394046F01007394305E04FF69C
:101D40005F77394044F01007394302830184F0BDC6
:101D5000028B4FF6F3731A400283028B0A4302830D
:101D60007047F0B50C46154600220021068C4FF650
:101D7000FE773E400684028B018C4FF60C76324093
:101D80007E1C06EA03162E433243704EB0420ED03C
:101D90006F4EB0420BD0B0F1804F08D06D4EB042C4
:101DA00005D06D4EB04202D06C4EB04206D14FF617
:101DB000FD76314044F00106314305E04FF6F576FB
:101DC000314044F00106314302830184F0BD70B517
:101DD00005460C465D4885420ED05D4885420BD0D5
:101DE000B5F1804F08D05B48854205D05A488542FE
:101DF00002D05A48854200D100E000BF208850B987
:101E00002389A28861882846FFF7ABFFE18828462E
:101E1000FFF79EFF25E0208804280AD12389A288A5
:101E200061882846FFF753FFE1882846FFF742FF05
:101E300017E0208808280AD12389A28861882846CB
:101E4000FFF7FBFEE1882846FFF7EEFE09E0238955
:101E5000A28861882846FFF7A6FEE1882846FFF79A
:101E600095FE70BD2DE9F04105460C460026012780
:101E7000608808B9022600E00026A088012801D168
:101E8000022700E001272088A0B92389A288618861
:101E90002846FFF766FFE1882846FFF759FF2389A8
:101EA0003A4631462846FFF712FFE1882846FFF7F9
:101EB00001FF13E02389A28861882846FFF707FF06
:101EC000E1882846FFF7F6FE23893A463146284640
:101ED000FFF747FFE1882846FFF73AFFBDE8F081AA
:101EE0000A884B881A438B881A43CB881A430B897C
:101EF0001A434B891A438B891A43A0F84420704730
:101F00004FF6FF71818000210180C1804180017204
:101F100070470021018041808180C1800181418121
:101F20008181C18170470021018041800121818030
:101F30000021C180018170470021018041808180A2
:101F4000C18001814181818170470000002C0140E6
:101F5000003401400004004000080040000C004034
:101F600021B1028842F00102028004E002884FF6AB
:101F7000FE731A400280704731B1B0F8442042F439
:101F80000042A0F8442005E0B0F84420C2F30E025D
:101F9000A0F8442070471AB183890B43838102E083
:101FA00083898B43838170478182704741EA0203B2
:101FB000A0F8483070471AB183890B43838102E04F
:101FC00083898B438381704701894FF6F8721140F2
:101FD000018170470A46002101894FF68F7319402D
:101FE00011430181704730B504460D46294620460D
:101FF000FFF7F0FF208940F00700208130BD2DE978
:10200000F04104460D4616461F46602D06D13B465C
:10201000012231462046FFF75AFE05E03B460122E9
:1020200031462046FFF79DFE29462046FFF7D2FFA6
:10203000208940F007002081BDE8F08130B50C46D2
:1020400000210189C9B24FF6FF7505EA0325154342
:1020500025432943018130BD2DE9F04105460E4657
:1020600017469846002443463A4631462846FFF72D
:10207000E5FF2C894FF6F870044044F007044FF652
:102080008F70044044F070042C81BDE8F081F0B5FD
:1020900004460D4616461F463B4632462946204614
:1020A000FFF7CCFF208940F480402081F0BD0185FE
:1020B000828270470A46002101884FF68F731940CB
:1020C000114301807047F0B50C4615461E460021AD
:1020D000002200230189028B038C4FF6F8773940E8
:1020E00021434FF6FC473A4040F201173A434FF67E
:1020F000DD773B404FF6FF7707EA06172F433B4358
:10210000018102830384F0BD0A460021018B4FF652
:102110008F7319401143018370470A460021018BD8
:1021200048F6FF7319404FF6FF7303EA0223194381
:10213000018370470A460021818B4FF68F73194047
:102140001143818370470A460021818B48F6FF7353
:1021500019404FF6FF7303EA022319438183704746
:1021600021B1028842F08002028004E002884FF62A
:102170007F731A400280704721B1828842F00402C6
:10218000828004E082884FF6FB731A408280704799
:1021900021B1828842F00802828004E082884FF6F2
:1021A000F7731A408280704721B1828842F00102A1
:1021B000828004E082884FF6FE731A408280704766
:1021C0000A460021018B4FF6F77319401143018332
:1021D00070470A460021018B4FF2FF7319404FF6FA
:1021E000FF7303EA02231943018370470A46002163
:1021F000818B4FF6F77319401143818370470A466C
:102200000021818B4FF2FF7319404FF6FF7303EAF1
:1022100002231943818370470A460021018B4FF640
:10222000FB7319401143018370470A460021018B5B
:102230004FF6FF3319404FF6FF7303EA02231943A9
:10224000018370470A460021818B4FF6FB731940CA
:102250001143818370470A460021818B4FF6FF337B
:1022600019404FF6FF7303EA022319438183704735
:102270000A460021018B4FF67F73194011430183F9
:1022800070470A460021018BC1F30E014FF6FF7320
:1022900003EA02231943018370470A460021818B18
:1022A0004FF67F7319401143818370470A4600211E
:1022B000818BC1F30E014FF6FF7303EA022319432A
:1022C000818370470A460021018C4FF6FD73194047
:1022D0001143018470470A460021018C4FF6F773C1
:1022E00019401143018470470A460021018C4FF6C2
:1022F000DF7319404FF6FF7303EA02131943018499
:1023000070470A460021018C4FF67F7319404FF643
:10231000FF7303EA02131943018470470A46002140
:10232000018C4FF6FF5319404FF6FF7303EA022367
:102330001943018470470A460021018C4FF2FF7354
:1023400019404FF6FF7303EA0223194301847047D3
:102350000A460021018C4DF6FF7319404FF6FF73BA
:1023600003EA023319430184704730B50023012486
:102370008C40A3B2048C9C430484048C02FA01F5C3
:10238000ADB22C43048430BD30B5002304248C400E
:10239000A3B2048C9C430484048C02FA01F5ADB210
:1023A0002C43048430BD70B5034600200024184639
:1023B000183001258D40ACB21D8CA5431D8409B198
:1023C000082909D100EB6100056825F0700505605A
:1023D0000568154305600EE00D1FC5F34E05284442
:1023E000056825F4E045056005684FF6FF7606EAC6
:1023F00002263543056070BD21B1028842F0020219
:10240000028004E002884FF6FD731A400280704794
:1024100021B1028842F00402028004E002884FF6F3
:10242000FB731A400280704721B1828842F080021B
:10243000828004E082884FF67F731A408280704762
:1024400002884FF6F7731A40028002880A4302801E
:10245000704782884FF68F731A40828082880A43C1
:102460008280704702894FF6F8731A400281028910
:102470000A430281704702894FF67F731A40028136
:1024800002890A43028170478184704781857047C1
:10249000818670470187704781877047A0F8401098
:1024A000704702884FF6FF431A40028002880A43B1
:1024B000028070470146888E70470146088F70473A
:1024C0000146888F70470146B1F8400070470146C9
:1024D000888C70470146088D704702460020138A99
:1024E0000B400BB1012000E000207047CA4302827C
:1024F000704730B50246002000230024158A05EA03
:102500000103958905EA010413B10CB1012000E033
:10251000002030BDCA4302827047000001684FF6B8
:10252000FE72114001600021016041608160C16064
:102530008D49884208D18C490839496841F00F011A
:10254000894A083A51608AE087491431884208D1A3
:1025500085490839496841F0F001834A083A5160D9
:102560007DE081492831884208D17F49083949688E
:1025700041F470617C4A083A516070E07A493C311C
:10258000884208D178490839496841F47041764A4F
:10259000083A516063E074495031884208D1724969
:1025A0000839496841F470216F4A083A516056E091
:1025B0006D496431884208D16B490839496841F452
:1025C0007001694A083A516049E0674978318842A8
:1025D00008D165490839496841F07061624A083A92
:1025E00051603CE06149884206D1011F096841F011
:1025F0000F01021F116032E05C491431884208D19A
:102600005A49091F096841F0F001584A121F116028
:1026100025E056492831884208D15449091F0968E4
:1026200041F47061514A121F116018E04F493C316A
:10263000884208D14D49091F096841F470414B4A4D
:10264000121F11600BE049495031884207D14749B8
:10265000091F096841F47021444A121F1160704734
:1026600010B50022026847F6F0739A430C6A8B6833
:1026700023430C6923434C6923438C692343CC696E
:1026800023434C6A23438C6A23431A430260CB687A
:1026900043600B6883604B68C36010BD002101601C
:1026A00041608160C160016141618161C16101621C
:1026B00041628162704721B1026842F0010202600A
:1026C00004E002684FF6FE731A40026070471AB1C8
:1026D00003680B43036002E003688B4303607047A9
:1026E000416070470146486880B27047014600204B
:1026F000002201F080531BB11C4B083B1A6802E01A
:10270000194B083B1A6802EA01030BB1012000E0F3
:102710000020704700F0805119B11449091F08606A
:1027200002E0114908394860704701460020002244
:1027300001F080531BB10D4B083B1A6802E00A4BB5
:10274000083B1A6802EA01030BB1012000E00020F7
:10275000704700F0805119B10449091F086002E078
:1027600001490839486070470800024008040240E7
:1027700010B501214807FEF714FD00214FF000506D
:10278000FEF70FFD10BD30B5002200235A4C226821
:1027900040F6FE748440A243D1E900452C438D6885
:1027A0002C43CD6844EA050303FA00F42243524C5B
:1027B000226030BD0021016041608160C1607047CE
:1027C00039B14D4A1268012383401A434A4B1A60BB
:1027D00006E0494A1268012383409A43464B1A6037
:1027E000704741B1444A12684FF4805383401A4302
:1027F000414B1A6007E0404A12684FF4805383400F
:102800009A433D4B1A60704710B551B13A4A121DB8
:10281000126804090123A3401A43374B1B1D1A6099
:1028200009E0354A121D126804090123A3409A43A6
:10283000314B1B1D1A6010BD40B12F49091D09689D
:1028400041F003012C4A121D116007E02A49091DBD
:10285000096821F00301284A121D1160704710B564
:102860003AB1254B1B6801FA00F42343224C236044
:1028700006E0214B1B6801FA00F4A3431E4C2360C1
:1028800010BD08B5002200921B4A009200F1080218
:10289000009B1A440092009A116008BD08B50022FE
:1028A0000092154A009200F11402009B1A44009213
:1028B000009A116008BD30B500240023082802D119
:1028C00042EA012401E042EA01440B4B00F12005F9
:1028D0002B441C6030BD08B501460020009006481E
:1028E00000902C2000EB9100009A1044009000987A
:1028F000006880B208BD000000740040704700000E
:102900000FB4044910B503AA029800F06BF910BC8B
:102910005DF814FBA80800202DE9F0410E4604469E
:10292000002020622046E168884730B3252805D082
:10293000D4E901219047206A401CF2E7E168204673
:1029400000278847050018D0A5F14100192802D8B2
:1029500020354FF400673246294620462760FDF7B0
:1029600023FC40B1012804D0F61D26F007060836E6
:10297000D8E7361DD6E72846DAE7206ABDE8F081B9
:1029800070B50C460546012A05D02878800600D58A
:10299000EA69002302E0012305E05B1C934202D2B6
:1029A000E05C0028F9D1A869E618C01AA861286A75
:1029B000184428622846AFF3008004E0D5E90121DD
:1029C00014F8010B9047B442F8D32846AFF30080C7
:1029D00070BD00002DE9F0410646002410687529FD
:1029E000314616A510D0AFF30080002802DA40422D
:1029F00013A507E031688A0701D512A502E049074F
:102A000004D511A5012401E0AFF3008000210A22C2
:102A100006F1240709E0B0FBF2FCB0FBF2F302FB85
:102A20001C00303078541846491C0028F3D1234646
:102A30002A463046BDE8F04100F064B800000000CE
:102A40002D0000002B0000002000000070B506469D
:102A500000F054F80468054630460A22002100F0D0
:102A6000D3F82C6070BD0000014A00F005B90000E9
:102A7000C40800204FF0013C50F8042B51F8043BEF
:102A80009A4221D1A2EB0C03934313EACC1317D142
:102A900050F8042B51F8043B9A4215D1A2EB0C03D9
:102AA000934313EACC130BD150F8042B51F8043B99
:102AB0009A4209D1A2EB0C03934313EACC13DBD067
:102AC0004FF00000704700BFD01A01BAB1FA81F18F
:102AD00001F0180122FA01F0CB40C1F12001DBB274
:102AE000C0B2C01A2CFA01F3D11A914311EAC311F2
:102AF000E6D170477047704770477047004870478D
:102B0000900900202DE9F0470D469946924604466B
:102B100000F124080168880604D5E06921F010015D
:102B2000216000E00120A84201DD471B00E00027F2
:102B3000A1697A1902EB0900081AA0612078C00681
:102B400002D42046AFF30080002608E0D4E901213A
:102B50001AF806009047206A401C761C20624E45F9
:102B6000F4DB2078C0060AD52046AFF3008006E0EB
:102B7000D4E9012130209047206A401C2062381E91
:102B8000A7F10107F4DC07E0D4E9012118F80500FA
:102B90009047206A401C2062281EA5F10105F3DC45
:102BA0002046AFF300802078000602D50220BDE861
:102BB000F0870120FBE710B5436913B1AFF3008044
:102BC00001E0FFF7DDFE012010BD127800F12401C5
:102BD0000A7000224A700122EDE711684FF0FF32BF
:102BE000E9E70000074B70B50D467B4400F077F82D
:102BF0000446284600F0D5F810B14FF0FF3070BD04
:102C0000204670BD89DCFFFF2DE9F04791460F4655
:102C100080460446002614F8015B2DB100F052F8FE
:102C20000068405DC007F6D12B2D02D02D2D18D0A5
:102C3000641E4A463946204600F064F827B13968D8
:102C4000A14201D1C7F800804FF0020471050BD5F5
:102C50004042002803DDFFF751FF0460A007BDE8F4
:102C6000F08746F48066E4E70028F8DAFFF746FFCD
:102C700004606FF00040F2E72DE9F04115460E4682
:102C8000040002D12C6804B90BA4204600F09DF882
:102C90000444207870B127463146384600F085F864
:102CA0000444207810B1002004F8010B38462C6051
:102CB000BDE8F0810027F9E70000000000487047F8
:102CC0009009002010B500F0B3F8001D10BD00BF42
:102CD0009901000001694A1C02610878704700B53B
:102CE0008FB0CDE901310021059105497944CDE945
:102CF000031011466846FFF70FFE0FB000BD00003D
:102D0000E5FFFFFF2DE9F05F824615468B46002761
:102D10000AF10104B9460078302801D09DB113E0D2
:102D200014F8010B0127782803D0582801D045B1A9
:102D30000AE00DB1102D07D1002714F8010B102562
:102D400002E0082500E00A250026B0460EE005FB5B
:102D5000080005FB06F101271FFA80F801EB104679
:102D6000B6F5803F00D3B94614F8010B294600F0B0
:102D700063F80028EBDABBF1000F05D00FB1641E39
:102D800000E05446CBF80040B9F1000F06D0FFF741
:102D9000B5FE02210160C81EBDE8F09F48EA06406A
:102DA000FAE7007B00F08000704730B503461D78DD
:102DB0001DB10A4603E0AC4201D1181A30BD12F829
:102DC000014B002CF7D15B1CF1E730B503461D78B1
:102DD0003DB10A4612F8014B1CB1AC42FAD15B1C62
:102DE000F5E7181A30BD7546FFF768FFAE460500D7
:102DF0006946534620F00700854618B020B5FDF718
:102E00007BFEBDE820404FF000064FF000074FF07A
:102E100000084FF0000B21F00701AC46ACE8C009F8
:102E2000ACE8C009ACE8C009ACE8C0098D46704701
:102E300000487047B00900203A2800D2303820F00E
:102E40002002412A01D3A2F13700884201D34FF07A
:102E5000FF30704710B50446AFF300802046BDE850
:102E60001040FDF7C2B9000010B500290AD008785B
:102E7000002807D005487844FFF7FCFD002801D062
:102E8000002010BD0248784410BD0000A2050000DB
:102E90009A05000090EA010F48BF81F0004100F15F
:102EA0003C82421A3CBF801A89184FEAD0524FF038
:102EB0007F4C1CEA410FA2EBD15318BF9CEA026F72
:102EC00000F03B804FF0004C4CEA00204CEA01211E
:102ED00021FA03FC10EB0C0C1ED202F1FF325FEA68
:102EE0001C2040EBC25038BF70471CF07F0F4FEAE8
:102EF000400C18BFBCF17F4F38BF7047C3F12003AF
:102F0000994008BF20F00100BCF17F4F38BF7047E7
:102F1000A0F1C04000F0F5B94FEA3C00000A40EBD8
:102F2000C25028BF1CF0FF0F4FEA400CE6D018BF7C
:102F3000BCF17F4F38BF7047EAE79CEA026F05D0CB
:102F400010EA5C0F08BF00F00040704710B500F0B9
:102F500092F900BF64FBBE3E4FF47F0C1CEAD01216
:102F60001EBF1CEAD11392EA0C0F93EA0C0F00F07B
:102F7000858090EA010F48BF42F4807240F4000C53
:102F800041F400002CF07F4120F07F4000B58142E9
:102F9000A2EB03020FF2081CACEB504EC0F1000094
:102FA0009EF800E04FEA4E0E00FB0EFC38BF4900D1
:102FB0004FEA2C1C02F5FA020CFB0EF34FEACE1E70
:102FC0004FEA112C4FEAC1210EEB635E42EB224225
:102FD0000EFB0CFC4FEA1C5300FB03114FEA112CB3
:102FE0004FEA01310EFB0CFC4FEADC4C00FB0C11EC
:102FF000C14228BF09184CEB03335DF804EB10EB1A
:10300000410143EBC250B2F57C0F38BF704729D560
:1030100012F0F00F1CBF00F1C04000F000407047FC
:10302000008182838485868788898B8C8D8E8F91A1
:103030009293959697999A9C9D9FA0A2A3A5A7A8C5
:10304000AAACAEB0B2B3B5B7B9BCBEC0C2C5C7C9F1
:10305000CCCED1D4D7D9DCDFE2E6E9ECF0F3F7FA55
:10306000FE0000004FEA400C0CF1807CBCF17E4F6A
:1030700028BF7047B0F1C04000F043B990EA010F9B
:103080000CEAD11348BF42F48072624538BF6345F1
:1030900007D213F47F0F16D080EA010000F0004041
:1030A000704710B500F0E7F8097EFC3E00F005B867
:1030B00080EA010000F00040704780EA010000F063
:1030C000004000F01EB912F47F0F04BF02487047A1
:1030D00080EA010000F015B90000C07FC10DD1F1F8
:1030E0009E0206DB4FEA002343F0004323FA02F07E
:1030F0007047004207D54FEA4001B1F1FE4F02D2BE
:103100004FF00000704710B500F0B5F849922480E8
:10311000002070476FEA20007047000010F0004167
:1031200048BF4042B0FA80F310FA03F2C3F19D03A6
:103130000BD051EAC35101EB1220530638BF704740
:1031400000F1010008BF20F001007047B0FA80F3E1
:1031500010FA03F2C3F19D030AD0D90501EB122046
:10316000530638BF704700F1010008BF20F001008E
:10317000704700004FF47F0C1CEAD0121EBF1CEAFF
:10318000D11392EA0C0F93EA0C0F00F0478090EAFB
:10319000010F48BF42F480724FF0004C4CEA00200F
:1031A0004CEA012102EB0302A0FB0113A2F500028D
:1031B000002918BF43F001035B0028BF4FEA330327
:1031C00042EB22425FEA132C4CEBC2502EBFBCEB09
:1031D000436FB2F57C0F70474FEA036CBCF1004FB0
:1031E00008BF20F00100B2F57C0F38BF70470BD547
:1031F00082F0FF0212F5803FC8BF704700F1C04067
:10320000D8BF00F00040704700F5000C5FEA4C0C9E
:1032100048BF7047B0F1C04000F073B890EA010FAA
:103220000CEAD11348BF42F48072624538BF63454F
:1032300004D280EA010000F00040704710B500F0B1
:103240001AF800BF8900013E00F007B800F009B885
:103250005FEA410C5FEA1C6C08D080EA010000F0D4
:1032600050B85FEA400C5FEA1C6CF6D14FF00040AA
:10327000A0F5800070470EF1020E2EF0030E5EF8EE
:10328000044B244204D44FEA4102B2F17F4F11D8DB
:103290004FEA4003B3F17F4F0CD80ED14FEAD07CF8
:1032A000B2F17F4F0CEB4C0C0CF1020C08BF4CEB55
:1032B000D17C04E04FF0080C01E04FEAD17C0CEB2C
:1032C0004C0324FA03F404F00704B4F1040C06D20E
:1032D0000EEB840CBDE810404CF0010C6047DFE8B9
:1032E0000CF0070802024FF00040A0F5800010BD6E
:1032F0000846420018BFD2F1807288BF00F000403B
:1033000010BDFF2141EAD050C005704790EA010F7F
:1033100048BF81F000413FF5C4AD421A04D882F0A5
:103320000042A0EB020011444FEAD0524FF07F4C14
:103330001CEA410FA2EBD15318BF9CEA026F4AD09E
:103340004FF0004C4CEA00204CEA012121FA03FC2A
:10335000B0EB0C0C0FD412F0FE0F36D05FEA4C002D
:103360001DD5001240EBC25038BF70471CF03F0F14
:1033700018BF70470BE0A2F101025FEA1C2040EB8E
:10338000C25038BF70471CF07F0F18BF7047C3F1A1
:103390002003994014BF401E20F0010070478008B0
:1033A0004FEA122308BF7047B0FA80FCA2EB0C0270
:1033B000CCF1280C60FA0CF093EA122F04BF00EB5A
:1033C000C25070474FEAC3707047130A5FEADC10BF
:1033D00008BF7047F6E79CEA026F04D010EA5C0F62
:1033E00008BF0020704710B5FFF745FF40DFF63EED
:1033F00081F00040704700002835000800000020E0
:10340000C808000028010008A0390008C8080020EA
:10341000280700008C010008100100004300000094
:10342000F8FFFFFF004040404040404040404141E5
:103430004141414040404040404040404040404089
:103440004040404040050202020202020202020223
:103450000202020202202020202020202020200220
:1034600002020202020290909090909010101010B0
:10347000101010101010101010101010101010104C
:1034800002020202020288888888888808080808E0
:1034900008080808080808080808080808080808AC
:1034A00002020202400000000000000000000000D4
:1034B000000000000000000000000000000000000C
:1034C00000000000000000000000000000000000FC
:1034D00000000000000000000000000000000000EC
:1034E00000000000000000000000000000000000DC
:1034F00000000000000000000000000000000000CC
:1035000000000000000000000000000000000000BB
:1035100000000000000000000000000000000000AB
:103520000000000000000000500600A24A04000154
:10353000108A01020304060708090008CB08950950
:103540005B0A1B0BD30B810C240DB90D400EB70E7B
:103550001E0F710FB20FE00FF90FFE0FEF0FCC0F20
:10356000940F4A0FED0E7E0EFF0D700DD40C2B0C38
:10357000780BBC0AF909310966089907CE060606D8
:1035800043058704D4032B038F020002810112013B
:10359000B5006B0033001000010006001F004D0055
:1035A0008E00E1004801BF014602DB027E032C04CD
:1035B000E404A4056A063407FF070026101C200057
:1035C0003000400050006000700080009000A000BB
:1035D000B000C000D000E000F0A900FF0010012002
:1035E000013101410151016101710181019101A18B
:1035F00001B101C101D101E101F101010211022179
:10360000023102410251026102710281029102A162
:1036100002B102C102D102E102F102010311032150
:10362000033103410351036103720382039203A236
:1036300003B203C203D203E203F203020412042220
:10364000043204420452046204720482049204A20A
:1036500004B204C204D204E204F2040205120522F8
:10366000053205420552056205720582059205A2E2
:1036700005B205C305D305E305F3050306130623C9
:10368000063306430653066306730683069306A3B2
:1036900006B306C306D306E306F3060307130723A0
:1036A000073307430753076307730783079307A38A
:1036B00007B307C307D307E307F307040814082475
:1036C000083408440854086408740884089408A45A
:1036D00008B408C408D408E408F40810E004091485
:1036E00009240934094409540964097409840994B2
:1036F00009A409B409C409D409E409F409040A14A1
:103700000A240A340A440A550A650A750A850A9584
:103710000AA50AB50AC50AD50AE50AF50A050B1570
:103720000B250B350B450B550B650B750B850B9559
:103730000BA50BB50BC50BD50BE50BF50B050C1548
:103740000C250C350C450C550C650C750C850C9630
:103750000CA60CB60CC60CD60CE60CF60C060D1618
:103760000D260D360D460D560D660D760D860D9601
:103770000DA60DB60DC60DD60DE60DF60D060E16F0
:103780000E260E360E460E560E660E760E860E96D9
:103790000EA60EB60EC60ED60EE70EF70E070F17C4
:1037A0000F270F370F470F570F670F770F870F97A9
:1037B0000FA70FB70FC70FD70FE70FF70212E70AD0
:1037C00012C71212A71A12872212672A1247321240
:1037D000273A1004070FF74612D64E12B656129625
:1037E0005E12766612566E1236761006160E060EAB
:1037F000F68612D68E12B69612969E1276A612569D
:10380000AE1236B61006160D060DF6C612D6CE123C
:10381000B6D61296DE1275E61255EE1235F614067D
:10382000150C050CF50616D50E16B51616951E16B2
:10383000752616552E1635361406150B050BF5464E
:1038400016D54E16B55616955E16756616556E1635
:1038500034761406140A040AF48616D48E16B49626
:1038600016949E1674A61654AE1634B61406140991
:103870000409F4C616D4CE16B4D61694DE1674E631
:103880001654EE1634F6180614080408F3061AD374
:103890000E1AB3161A931E1A73261A532E1A33369B
:1038A000180613070307F3461AD34E1AB3561A9392
:1038B0005E1A73661A536E1A3376180613060306D9
:1038C000F3861AD38E1AB2961A929E1A72A61A52BA
:1038D000AE1A32B6180612050205F2C61AD2CE1A70
:1038E000B2D61A92DE1A72E61A52EE1A32F61C0696
:1038F00012040204F206031ED20E031EB216031EA9
:10390000921E031E7226031E512E031E3136031C07
:103910000611030103F146031ED14E031EB15603E7
:103920001E915E031E7166031E516E031E317603E7
:103930001C0611020102F186031ED18E031EB196F0
:10394000031E919E031E71A6031E51AE031E31B6C7
:10395000031C0610010001F0C6031ED0CE031EB0EA
:10396000D6031E90DE031E70E6031E50EE031E30CB
:10397000F6031E10880403FFFF0F0201FB0202FF83
:10398000000101FC01290252370CC006140000207E
:10399000401F2DA7086DAB08300502040608AF00D4
:04000005080000ED02
:00000001FF
