:020000040800F2
:10000000F81700207D0B0008E1020008E302000859
:10001000E7020008EB020008EF0200080000000001
:10002000000000000000000000000000F3020008D3
:10003000F502000800000000F7020008F9020008BD
:10004000970B0008970B0008970B0008970B000808
:10005000970B0008970B0008970B0008970B0008F8
:10006000970B0008970B0008970B0008970B0008E8
:10007000970B0008970B0008970B0008970B0008D8
:10008000970B0008970B0008970B0008970B0008C8
:10009000970B0008970B0008970B0008970B0008B8
:1000A000970B0008970B0008970B0008970B0008A8
:1000B000970B0008970B0008970B0008970B000898
:1000C000970B0008970B0008970B0008970B000888
:1000D000970B0008850A0008970B0008970B00088B
:1000E000970B0008970B0008970B000800F002F828
:1000F00000F072F80AA090E8000C82448344AAF150
:100100000107DA4501D100F067F8AFF2090EBAE84D
:100110000F0013F0010F18BFFB1A43F0010318473B
:10012000683400008834000010F8013B0A4413F0E2
:10013000030408BF10F8014B1D1108BF10F8015B44
:10014000641E05D010F8016B641E01F8016BF9D133
:10015000002D15D010F8014B03F00C030C2BA1EB74
:1001600004040ABF10F8013BA4EB8314A4EB03249E
:1001700005F1010314F8016B5B1E01F8016BF9D561
:10018000914238BF10F8013BD1D3704700230024BF
:1001900000250026103A28BF78C1FBD8520728BF97
:1001A00030C148BF0B607047642902F06384752931
:1001B00002F06084732902F0A685002070471FB505
:1001C00002F0FEFE04000020002102F015FF401C9A
:1001D00060601FBD10B510BD02F0CDFE1146FFF7E7
:1001E000EEFF00F009F802F0FDFE03B4FFF7F2FFA6
:1001F00003BC00F07FFB000000F0EFF84FF4E130AB
:1002000000F087FB00F06AF909A002F0C9FB10A01A
:1002100002F0C6FB1AA002F0C3FB20A002F0C0FB54
:1002200027A002F0BDFB3E2000F0BFF900BFFEE7B3
:100230004441432057617665666F726D2047656E55
:10024000657261746F72205265616479210D0A00D4
:10025000436F6D6D616E64733A20574156453A5352
:10026000494E452C5351554152452C545249414E0B
:10027000474C452C534157544F4F54480D0A0000EA
:1002800020202020202020202020465245513A3195
:1002900030302D35303030300D0A00002020202045
:1002A000202020202020445554593A312D3130301F
:1002B0002028666F7220737175617265290D0A00BE
:1002C00020202020202020202020414D503A312D78
:1002D00031303028302D332E3356290D0A000000DE
:1002E000704700BFFEE700BFFEE700BFFEE700BFAC
:1002F000FEE7704770477047704700000CB500205C
:10030000019000906C48006840F480306A490860B1
:1003100000BF6948006800F4003000900198401C5C
:100320000190009818B90198B0F5A06FF1D162481A
:10033000006800F4003010B10120009001E00020BE
:1003400000900098012843D15C48006840F01000FC
:100350005A4908600846006820F003000860084613
:10036000006840F002000860534840685249486005
:100370000846406848600846406840F4806048602D
:100380000846406820F47C1048600846406840F405
:10039000E81048600846006840F08070086000BFC0
:1003A0004548006800F000700028F9D042484068D5
:1003B00020F00300404948600846406840F00200D1
:1003C000486000BF3C48406800F00C000828F9D1A4
:1003D0000CBD10B5FFF792FF10BD10B53648006890
:1003E00040F001003449086008464068344908403C
:1003F0003149486008460068324908402E49086083
:100400000846006820F4802008600846406820F410
:10041000FE0048604FF41F008860FFF7DAFF4FF0DE
:1004200000602949086010BD10B50021002000229D
:10043000214B5B6803F00C0121B1042906D0082987
:1004400028D107E0214B224C236027E01F4B204C92
:10045000236023E0184B5B6803F47010164B5B6855
:1004600003F48032022303EB904022B9194B43433B
:10047000174C23600DE0104B5B6803F4003323B18D
:10048000144B4343124C236003E0104B4343104C86
:10049000236003E00D4B0E4C236000BF00BF064BF2
:1004A0005B68C3F303130C4CE15C094B1B68CB4046
:1004B000074C236010BD00000010024000200240E5
:1004C0000000FFF8FFFFF6FE08ED00E000127A00E2
:1004D0000000002000093D000400002000B591B09C
:1004E0000121042000F086FE0121480700F08FFE64
:1004F0000121022000F071FE0121084600F087FE74
:1005000000208DF843001020ADF8400003208DF846
:10051000420010A9CC4800F0B1FB002211464FF078
:10052000804001F014FEC948008881B24FF080403D
:1005300001F0FCFF2021480601F0DBFF24200C9095
:1005400000200D900E900F900CA902F06CF9C0489D
:1005500001908015079000200590BE4802904FF44E
:10056000806008908020069010200390BA48008890
:10057000049020200990C0010A9000200B9001A94E
:10058000B64802F0BDF80121880701F039FD0121CC
:10059000B24802F0E0F80121002002F061F90121E7
:1005A000002002F06EF911B000BD2DE9F0470546BC
:1005B00000240026A1460021084602F051F900213E
:1005C000A64802F0C8F8284602F088FE0746A4496B
:1005D00002F08AFD06463146A24802F093FE074625
:1005E00002F044FE1FFA80F99F48007830B10128DC
:1005F00022D0022835D0032861D149E0002416E03A
:10060000944931F81410A1F5006002F04FFE8246C3
:10061000314602F077FE80464FF08A4102F002FD3B
:10062000074602F023FE8B4921F81400641C8A4817
:1006300000888442E4DB42E000240DE0854830F885
:10064000140040F6FF71884201D1484600E00020C6
:10065000804921F81400641C7F4800888442EDDB47
:100660002DE000240FE07B4931F8140002F036FE43
:100670008046314602F046FE074602F0F7FD754916
:1006800021F81400641C744800888442EBDB16E0F7
:1006900000240FE06F4931F8140002F01FFE80467D
:1006A000314602F02FFE074602F0E0FD694921F8CD
:1006B0001400641C684800888442EBDB00BF00BF64
:1006C0000121664802F047F80121002002F0C8F835
:1006D000294666A002F064F9BDE8F08770B50446CB
:1006E000002504B901245C48008804FB00F5654836
:1006F0000068B0FBF5F0401E5449086008460088C9
:1007000081B24FF0804001F011FF21465EA002F05F
:1007100047F970BD10B504460021084602F0A0F864
:1007200000214E4802F017F834B1012C0DD0022CF4
:1007300016D0032C2AD11EE080225849454802F0E9
:10074000E9F940204449088020E04FF48062544990
:10075000404802F0DFF94FF400703F49088015E08F
:100760004FF480624F493B4802F0D4F94FF40070D7
:10077000394908800AE04FF480624B49354802F05D
:10078000C9F94FF400703449088000BF00BF002150
:10079000324801F0E0FF304800883049091D086008
:1007A0002C482E490C31086001212C4801F0D3FF60
:1007B0000121002002F054F82B480470007820B981
:1007C00044F62060FFF78AFF03E04FF4FA60FFF77A
:1007D00085FF3E20FFF7E9FE214634A002F0E0F855
:1007E00010BD70B5054600240026642D00DD64258B
:1007F0001D480078012803D031A002F0D1F870BD67
:10080000154800886843642190FBF1F086B200240B
:100810000CE0B44205DA40F6FF70214921F81400DB
:1008200003E000201E4921F81400641C0A480088D7
:100830008442EEDB0120FFF76DFF294628A002F07D
:10084000AFF800BFDBE7000000080140A010002067
:1008500008740040980C00209E10002030040240D4
:100860000000C84200F07F459C100020416D706C74
:100870006974756465207365743A20256425250DB7
:100880000A0000009810002046726571207365749C
:100890003A20257520487A0D0A0000001400002037
:1008A000940400209400002094080020576176658D
:1008B000206368616E6765643A2025640D0A000054
:1008C00044757479206F6E6C7920666F7220737135
:1008D000756172652077617665210D0A0000000060
:1008E00044757479207365743A20256425250D0AB2
:1008F0000000000001460020704700BF864A1288B1
:1009000002F04002002AF9D0C2B2834B1B1D1A80AC
:10091000704710B586B00446012144F2040000F08F
:1009200069FC4FF40070ADF8140003208DF8160038
:1009300018208DF8170005A9784800F09FF94FF4AA
:100940008060ADF8140004208DF8170005A97348E5
:1009500000F094F925208DF8000003208DF80100A7
:100960008DF8020001208DF80300684600F0AFFE0C
:1009700001940020ADF80800ADF80A00ADF80C00B5
:10098000ADF810000C20ADF80E0001A9624800F08F
:10099000D8FC012240F225515F4800F06AFD012198
:1009A0005D4800F05AFD06B010BD2DE9F047044641
:1009B000002500260027A846A946214658A001F098
:1009C000EFFF5AA1204602F09FF8054657A10020EC
:1009D00002F09AF80646002D52D0002E50D054A1B5
:1009E000284602F0DDF818BB53A1304602F0D8F8D3
:1009F00018B90020FFF78EFE42E051A1304602F008
:100A0000CFF818B90120FFF785FE39E04EA1304636
:100A100002F0C6F818B90220FFF77CFE30E04DA1C5
:100A2000304602F0BDF858BB0320FFF773FE27E005
:100A30004BA1284602F0B4F838B9304602F056F817
:100A400007463846FFF74AFE1AE047A1284602F05B
:100A5000A7F840B9304602F049F800F0FF084046D8
:100A6000FFF7BFFE0CE042A1284602F099F838B922
:100A7000304602F03BF800F0FF094846FFF795FDCD
:100A8000BDE8F08710B540F22551234800F0D6FDAF
:100A9000002840D0204800F051FDC4B235480088FD
:100AA00000F4004028BB3348008800F48040C0B107
:100AB0000A2C03D000202F4908802CE02D48008804
:100AC00040F400402B49088000200988C1F30D0143
:100AD000294A50541046FFF768FF00202549088036
:100AE00019E00D2C06D12348008840F480402149AC
:100AF000088010E01F480088C0F30D001E490C5408
:100B00001C480088401C1B49088008460088C728EC
:100B100001DD0020088010BD0038014000080140C0
:100B2000434D443A2025730D0A0000003A000000AE
:100B3000574156450000000053494E450000000053
:100B40005351554152450000545249414E474C457E
:100B500000000000534157544F4F5448000000001C
:100B60004652455100000000445554590000000011
:100B7000414D5000AC100020CC10002009488047A7
:100B800009480047FEE7FEE7FEE7FEE7FEE7FEE76F
:100B9000FEE7FEE7FEE7FEE704480549054A064B87
:100BA00070470000DB030008ED000008F81100208A
:100BB000F8170020F8130020F813002010B50446A1
:100BC000CC48844208D10121042000F02DFB0021F3
:100BD000042000F029FB46E0C748844208D10121E7
:100BE000082000F021FB0021082000F01DFB3AE066
:100BF000C248844208D10121102000F015FB0021D9
:100C0000102000F011FB2EE0BD48844208D10121E4
:100C1000202000F009FB0021202000F005FB22E04D
:100C2000B848844208D10121402000F0FDFA00219B
:100C3000402000F0F9FA16E0B348844208D10121BF
:100C4000802000F0F1FA0021802000F0EDFA0AE0A7
:100C5000AE48844207D10121801500F0E5FA002159
:100C6000A01500F0E1FA10BD10B50121084600F012
:100C7000DBFA0021012000F0D7FA10BD2DE9F04188
:100C8000024600250026002000230024002791F8BA
:100C900003C00CF00F0591F803C00CF0100CBCF170
:100CA000000F03D091F802C04CEA050591F800C08E
:100CB000BCF1000F31D0146800202BE04FF0010C84
:100CC0000CFA00F3B1F800C00CEA03069E4220D1F2
:100CD00083004FF00F0C0CFA03F7BC4305FA03FC3A
:100CE0004CEA040491F803C0BCF1280F06D14FF080
:100CF000010C0CFA00FCC2F814C00AE091F803C021
:100D0000BCF1480F05D14FF0010C0CFA00FCC2F801
:100D100010C0401C0828D1D31460B1F800C0BCF149
:100D2000FF0F34DD546800202EE000F1080C4FF076
:100D3000010808FA0CF3B1F800C00CEA03069E4261
:100D400021D183004FF00F0C0CFA03F7BC4305FAD6
:100D500003FC4CEA040491F803C0BCF1280F05D150
:100D600000F1080C08FA0CF8C2F8148091F803C0DE
:100D7000BCF1480F07D100F1080C4FF0010808FA48
:100D80000CF8C2F81080401C0828CED35460BDE88F
:100D9000F0814FF6FF710180022181700421C17042
:100DA00070470246002093680B400BB1012000E021
:100DB000002070470146886880B2704702460020D4
:100DC000D3680B400BB1012000E0002070470146C2
:100DD000C86880B2704701617047416170470AB1CD
:100DE000016100E041617047C16070474FF480329B
:100DF0000A43826181618261826982697047024629
:100E00000020434B18684FF68073184040EA0210E8
:100E100008433F4B186070473E49C8617047F0B5C2
:100E20000A46002300240021002500F00046B6F108
:100E3000004F02D1364EF16901E0354E7168C0F3C2
:100E4000034583B200F44016B6F5401F08D121F0E7
:100E500070612F4E766826F070662D4F7E6012E02E
:100E600000F48016B6F5801F06D1032606FA05F4B5
:100E7000A14341F0706106E0460D360103FA06F623
:100E8000B14341F0706122B1460D360103FA06F616
:100E9000314300F00046B6F1004F02D11C4EF16123
:100EA00001E01B4E7160F0BD30B500228B071C0FB6
:100EB0000F2303FA04F2164B08338C1053F8243036
:100EC0009343134C08348D1044F8253023468C107E
:100ED00053F824308C07240F00FA04F423430C4CFD
:100EE00008348D1044F8253030BD0A49DC310860E3
:100EF0007047000000080140000C01400010014054
:100F00000014014000180140001C01400020014075
:100F10000000014000002042DF48006840F001006E
:100F2000DD49086008464068DC490840DA49486005
:100F300008460068DA490840D74908600846006852
:100F400020F4802008600846406820F4FE004860D5
:100F50004FF41F0088607047CF49096821F4803141
:100F6000CD4A11601146096821F480211160B0F565
:100F7000803F03D0B0F5802F0ED106E0C649096846
:100F800041F48031C44A116007E0C349096841F463
:100F9000A021C14A116000E000BF00BF704710B53A
:100FA00001460022002300204A11012A02D1BA4C36
:100FB000236806E0022A02D1B74C236A01E0B64C4E
:100FC000636A01F01F02012494401C400CB101200F
:100FD00000E0002010BD38B500200090002400255E
:100FE00000BF3120FFF7DBFF05460098401C009052
:100FF0000098B0F5A06F01D0002DF2D03120FFF79E
:10100000CEFF08B1012400E00024204638BD01468F
:101010000020A14A106820F0F80040EAC1001060EA
:101020007047A04908607047024600209A4B5868F4
:1010300020F47C1042EA01031843974B5860704734
:1010400098490866704701460020934A506820F08E
:1010500003000843506070478F48406800F00C0060
:101060007047014600208C4A506820F0F000084389
:101070005060704701460020874A506820F4E060C5
:1010800008435060704701460020834A506820F4AE
:10109000605040EAC1005060704729B17E4A527AE0
:1010A00002437D4B5A7204E07B4A527A82437A4B68
:1010B0005A7270477B49D83108607047014600205A
:1010C000754A506820F44040084350607047002142
:1010D000714A20321170704A82F82010012802D023
:1010E00004280AD104E001216B4A2032117005E086
:1010F0000521694A2032117000E000BF00BF70472F
:101100006949086070476449096A0143624A11628B
:101110007047654944390860704730B500210022A6
:10112000002400235C4D6D6805F00C0121B10429F9
:1011300005D0082923D105E05C4D056022E05B4D18
:1011400005601FE0544D6D6805F47012524D6D68D6
:1011500005F48034022505EB92421CB9544D5543E9
:1011600005600BE04C4D6D6805F400351DB1504D28
:101170005543056002E04D4D5543056002E04B4D7F
:10118000056000BF00BF444D6D6805F0F00109091E
:10119000484D6B5C0568DD4045603F4D6D6805F46A
:1011A000E061090A434D6B5C4568DD4085603A4D5E
:1011B0006D6805F46051C90A3E4D6B5C4568DD40C1
:1011C000C560354D6D6805F44041890B3A4D6B5C47
:1011D000C568B5FBF3F5056130BD29B12E4A5269EA
:1011E00002432D4B5A6104E02B4A526982432A4B39
:1011F0005A61704729B1284A92690243264B9A6185
:1012000004E0254A92698243234B9A61704729B1D1
:10121000214AD2690243204BDA6104E01E4AD269B6
:1012200082431D4BDA61704729B11B4AD2680243E1
:10123000194BDA6004E0184AD2688243164BDA6030
:10124000704729B1144A12690243134B1A6104E032
:10125000114A12698243104B1A6170471249403992
:10126000086070470F49C86470470B49C8717047E0
:101270000948406A40F0807007494862704701465B
:101280000020054A92680A400AB1012000E00020CF
:101290007047014988727047001002400000FFF853
:1012A000FFFFF6FE000042428004424200127A0034
:1012B00000093D00B3100020C310002010B5044603
:1012C000FB48844209D101218803FFF7ADFF0021CB
:1012D0004FF48040FFF7A8FF32E0F648844209D17E
:1012E00001214804FFF7ADFF00214FF40030FFF764
:1012F000A8FF25E0F048844209D101218804FFF7C6
:10130000A0FF00214FF48020FFF79BFF18E0EB487F
:10131000844209D10121C804FFF793FF00214FF453
:101320000020FFF78EFF0BE0E548844208D1012141
:101330000805FFF786FF00214FF48010FFF781FFBB
:1013400010BD2DE9F04786B005460E460024A246A2
:1013500000BFA1460027B08900B100BF2F462C8AEC
:101360004CF6FF700440F08804432C82AC894EF6A2
:10137000F3100440B088318908437189084304435D
:10138000AC81AC8A4FF6FF400440B0890443AC8284
:1013900001A8FFF7C2FEC648874202D1DDF810A0BF
:1013A00001E0DDF80CA0A88900F4004040B10AEB90
:1013B000CA0000EB0A1031684900B0FBF1F807E001
:1013C0000AEBCA0000EB0A1031688900B0FBF1F8A3
:1013D0006420B8FBF0F004012009642101FB1089AE
:1013E000A88900F4004040B1322000EBC900B0FBF6
:1013F000F1F000F00700044308E0322000EB091090
:101400006421B0FBF1F000F00F0004432C8106B022
:10141000BDE8F0874FF41651016000218180C18042
:1014200001810C21418100218181704710B5024664
:101430000020108A4FF2FF0318400B884C8823438A
:101440008C882343CC8823431843108210BD00218D
:10145000018041808180C180704721B1828942F43E
:101460000052828104E082894DF6FF731A40828126
:101470007047F0B50346002400260025002040F602
:101480006A17B94200D100BF1846C1F3421401F0F7
:101490001F06012707FA06F5012C01D10C3004E0E4
:1014A000022C01D1103000E014301AB107682F432C
:1014B000076002E00768AF430760F0BD1AB1838A96
:1014C0000B43838202E0838A8B4383827047028AC4
:1014D0004FF6F0731A400282028A0A430282704772
:1014E00082894FF2FF731A40828182890A43828186
:1014F000704721B1828942F00202828104E0828930
:101500004FF6FD731A4082817047028A4FF6DF73EF
:101510001A400282028A0A430282704721B1028A7B
:1015200042F48042028204E0028A4BF6FF731A40C2
:1015300002827047C1F308028280704701468888A2
:10154000C0F308007047818941F001018181704733
:10155000028BD2B20283028B42EA012202837047DD
:10156000028B02F47F420283028B0A43028370479C
:1015700021B1828A42F02002828204E0828A4FF600
:10158000DF731A408282704721B1828A42F01002D2
:10159000828204E0828A4FF6EF731A40828270479B
:1015A00021B1828A42F00802828204E0828A4FF6E8
:1015B000F7731A408282704721B1828942F4004257
:1015C000828103E08289C2F30E028281704721B1D9
:1015D000828A42F40062828204E0828A4FF2FF73C0
:1015E0001A4082827047828A4FF6FB731A408282C9
:1015F000828A0A438282704721B1828A42F00202C3
:10160000828204E0828A4FF6FD731A40828270471C
:1016100002460020B1F5007F00D100BF13880B40C7
:101620000BB1012000E00020704701F40072B2F518
:10163000007F00D100BFCA430280704770B50246E8
:10164000002400230025002040F66A16B14200D194
:1016500000BFC1F3421501F01F03012606FA03F390
:10166000012D02D19689334006E0022D02D1168A5F
:10167000334001E0968A33400C12012606FA04F446
:101680001688344013B10CB1012000E0002070BD79
:1016900010B50022002340F66A14A14200D100BF19
:1016A0000A1201249440A3B2DC43048010BD000060
:1016B000003801400044004000480040004C004019
:1016C0000050004031490143314A1160704770B504
:1016D000002100230F22C47804B32D4C246804F4A5
:1016E000E064C4F5E064210AC1F10403CA4044780F
:1016F00004FA03F18478144021430901254C06784B
:10170000A155047804F01F050124AC4005786D1143
:10171000AD0005F1E025C5F8004109E0047804F0CA
:101720001F050124AC401C4D0678761145F8264073
:1017300070BD1A4A0A400243154B1B1F1A607047BE
:1017400039B1134A121D12680243114B1B1D1A6056
:1017500006E00F4A121D126882430D4B1B1D1A60D2
:101760007047042808D14FF0E021096941F00401D5
:101770004FF0E022116107E04FF0E021096921F00C
:1017800004014FF0E0221161704700000000FA05EB
:101790000CED00E000E400E080E100E080FFFF1FCE
:1017A00010B50446FE48844208D10121C014FFF759
:1017B0003BFD0021E014FFF737FDC4E0B4F1804F9A
:1017C00008D101210846FFF73CFD00210120FFF769
:1017D00038FDB8E0F348844208D101210220FFF728
:1017E00030FD00210220FFF72CFDACE0EE488442E2
:1017F00008D101210420FFF724FD00210420FFF778
:1018000020FDA0E0E948844208D101210820FFF72B
:1018100018FD00210820FFF714FD94E0E4488442FD
:1018200008D101211020FFF70CFD00211020FFF747
:1018300008FD88E0DF48844208D101212020FFF71D
:1018400000FD00212020FFF7FCFC7CE0DA48844208
:1018500008D101214014FFF7E7FC00216014FFF7D5
:10186000E3FC70E0D548844209D10121C804FFF7A8
:10187000DBFC00214FF40020FFF7D6FC63E0D048EA
:10188000844209D101210805FFF7CEFC00214FF465
:101890008010FFF7C9FC56E0CA48844209D10121F3
:1018A0004805FFF7C1FC00214FF40010FFF7BCFC16
:1018B00049E0C548844208D101214020FFF7C1FC1E
:1018C00000214020FFF7BDFC3DE0C048844208D124
:1018D00001218020FFF7B5FC00218020FFF7B1FC3B
:1018E00031E0BB48844208D101218015FFF7A9FCF3
:1018F0000021A015FFF7A5FC25E0B648844209D1D8
:1019000001210804FFF790FC00214FF48030FFF71D
:101910008BFC18E0B048844209D101214804FFF74C
:1019200083FC00214FF40030FFF77EFC0BE0AB4856
:10193000844208D101218804FFF776FC00214FF48E
:101940008020FFF771FC10BD00220288944B984262
:101950000ED0994B98420BD0B0F1804F08D0914BEC
:10196000984205D0904B984202D0904B984204D1B7
:101970004FF68F731A404B881A438D4B984207D00D
:101980008C4B984204D04FF6FF431A40CB881A4341
:1019900002808B8883850B880385814B98420BD00E
:1019A000854B984208D08B4B984205D08A4B984281
:1019B00002D08A4B984201D10B7A0386012383829D
:1019C000704770B5002400220023058C4FF6FE7688
:1019D00035400584028C8388048B4FF68F752C402C
:1019E000B51E2C400D882C43751E2A400D892A43B4
:1019F0004D882A436A4DA8420BD06F4DA84208D0AB
:101A0000744DA84205D0744DA84202D0734DA8422F
:101A100013D14FF6F7752A404D892A434FF6FB75CF
:101A20002A408D882A434FF6FF652B404FF6FF551D
:101A30002B408D892B43CD892B4383800483CD8814
:101A40008586028470BD70B5002400220023058CB9
:101A50004FF6EF7635400584028C8388048B48F678
:101A6000FF752C404FF6FF452C400D884FF6FF7652
:101A700006EA05252C434FF6DF752A400D8906EA54
:101A800005152A434D8806EA05152A43444DA84208
:101A900002D0494DA8421DD14FF67F752A404D898D
:101AA0004FF6FF7606EA05152A434FF6BF752A4022
:101AB0008D8806EA05152A434FF6FF352B404FF275
:101AC000FF752B408D8906EA85052B43CD8906EAF3
:101AD00085052B4383800483CD880587028470BDF0
:101AE00070B5002400220023058C4FF6FF663540B8
:101AF0000584028C8388848B4FF68F752C404FF6BB
:101B0000FC752C400D882C434FF6FF552A400D895B
:101B10004FF6FF7606EA05252A434D8806EA052595
:101B20002A431F4DA84202D0234DA8421DD14FF297
:101B3000FF752A404D894FF6FF7606EA05252A43B0
:101B40004FF6FF352A408D8806EA05252A434EF6D2
:101B5000FF752B404DF6FF752B408D8906EA051564
:101B60002B43CD8906EA05152B4383808483CD88DA
:101B70008587028470BD70B5002200230024058C87
:101B80004EF6FF7635400584038C8488828B48F6B8
:101B9000FF752A404FF6FF452A400D8820E00000DF
:101BA000002C01400004004000080040000C0040F0
:101BB000001000400014004000340140004C01407F
:101BC000005001400054014000180040001C00403B
:101BD0000020004000400140004401400048014016
:101BE0004FF6FF7606EA05252A434DF6FF752B4092
:101BF0000D8906EA05352B434D8806EA05352B434A
:101C0000FA4DA84202D0FA4DA84208D14BF6FF7512
:101C10002C408D894FF6FF7606EA85152C4384808B
:101C20008283CD88A0F84050038470BD828B4FF230
:101C3000FF331A408283828B4FF6FF7303EA01233E
:101C40001A4382837047F0B50C46154600220021E6
:101C50000026078C4EF6FF7C07EA0C070784828B70
:101C6000018C4FF6FF7707EA043640F6FF473A400B
:101C70004FF6FF7707EA05273A434FF6FF7707EA63
:101C800003373A43D94FB8420ED0D94FB8420BD0A0
:101C9000B0F1804F08D0D74FB84205D0D64FB842E8
:101CA00002D0D64FB84206D14DF6FF77394046F400
:101CB0008057394305E047F6FF57394044F48057D1
:101CC000394382830184F0BD828B4FF6F3731A404F
:101CD0008283828B0A4382837047F0B50C46154697
:101CE000002200210026078C4FF6FF6C07EA0C0744
:101CF0000784828B018C4FF6FF7707EA04264FF6A4
:101D00000C773A404FF6FF7707EA03172F433A4321
:101D1000B64FB8420ED0B64FB8420BD0B0F1804F9C
:101D200008D0B44FB84205D0B34FB84202D0B34F39
:101D3000B84206D14FF6FF57394046F48077394311
:101D400005E04FF2FF57394044F4807739438283EE
:101D50000184F0BD028B4FF2FF331A400283028BE5
:101D60004FF6FF7303EA01231A4302837047F0B56D
:101D70000C461546002200210026078C4FF6EF7C0A
:101D800007EA0C070784028B018C4FF6FF7707EAFE
:101D9000041640F6FF473A404FF6FF7707EA03374D
:101DA0003A434FF6FF7707EA05273A438F4FB84289
:101DB0000ED08F4FB8420BD0B0F1804F08D08D4F6E
:101DC000B84205D08C4FB84202D08C4FB84206D1F1
:101DD0004FF6DF77394046F01007394305E04FF6FC
:101DE0005F77394044F01007394302830184F0BD26
:101DF000028B4FF6F3731A400283028B0A4302836D
:101E00007047F0B50C46154600220021068C4FF6AF
:101E1000FE773E400684028B018C4FF60C763240F2
:101E20007E1C06EA03162E433243704EB0420ED09B
:101E30006F4EB0420BD0B0F1804F08D06D4EB04223
:101E400005D06D4EB04202D06C4EB04206D14FF676
:101E5000FD76314044F00106314305E04FF6F5765A
:101E6000314044F00106314302830184F0BD70B576
:101E700005460C465D4885420ED05D4885420BD034
:101E8000B5F1804F08D05B48854205D05A4885425D
:101E900002D05A48854200D100E000BF208850B9E6
:101EA0002389A28861882846FFF7ABFFE18828468E
:101EB000FFF79EFF25E0208804280AD12389A28805
:101EC00061882846FFF753FFE1882846FFF742FF65
:101ED00017E0208808280AD12389A288618828462B
:101EE000FFF7FBFEE1882846FFF7EEFE09E02389B5
:101EF000A28861882846FFF7A6FEE1882846FFF7FA
:101F000095FE70BD2DE9F04105460C4600260127DF
:101F1000608808B9022600E00026A088012801D1C7
:101F2000022700E001272088A0B92389A2886188C0
:101F30002846FFF766FFE1882846FFF759FF238907
:101F40003A4631462846FFF712FFE1882846FFF758
:101F500001FF13E02389A28861882846FFF707FF65
:101F6000E1882846FFF7F6FE23893A46314628469F
:101F7000FFF747FFE1882846FFF73AFFBDE8F08109
:101F80000A884B881A438B881A43CB881A430B89DB
:101F90001A434B891A438B891A43A0F8442070478F
:101FA0004FF6FF71818000210180C1804180017264
:101FB00070470021018041808180C1800181418181
:101FC0008181C18170470021018041800121818090
:101FD0000021C18001817047002101804180818002
:101FE000C18001814181818170470000002C014046
:101FF000003401400004004000080040000C004094
:1020000021B1028842F00102028004E002884FF60A
:10201000FE731A400280704731B1B0F8442042F498
:102020000042A0F8442005E0B0F84420C2F30E02BC
:10203000A0F8442070471AB183890B43838102E0E2
:1020400083898B43838170478182704741EA020311
:10205000A0F8483070471AB183890B43838102E0AE
:1020600083898B438381704701894FF6F872114051
:10207000018170470A46002101894FF68F7319408C
:1020800011430181704730B504460D46294620466C
:10209000FFF7F0FF208940F00700208130BD2DE9D7
:1020A000F04104460D4616461F46602D06D13B46BC
:1020B000012231462046FFF75AFE05E03B46012249
:1020C00031462046FFF79DFE29462046FFF7D2FF06
:1020D000208940F007002081BDE8F08130B50C4632
:1020E00000210189C9B24FF6FF7505EA03251543A2
:1020F00025432943018130BD2DE9F04105460E46B7
:1021000017469846002443463A4631462846FFF78C
:10211000E5FF2C894FF6F870044044F007044FF6B1
:102120008F70044044F070042C81BDE8F081F0B55C
:1021300004460D4616461F463B4632462946204673
:10214000FFF7CCFF208940F480402081F0BD01855D
:10215000828270470A46002101884FF68F7319402A
:10216000114301807047F0B50C4615461E4600210C
:10217000002200230189028B038C4FF6F877394047
:1021800021434FF6FC473A4040F201173A434FF6DD
:10219000DD773B404FF6FF7707EA06172F433B43B7
:1021A000018102830384F0BD0A460021018B4FF6B2
:1021B0008F7319401143018370470A460021018B38
:1021C00048F6FF7319404FF6FF7303EA02231943E1
:1021D000018370470A460021818B4FF68F731940A7
:1021E0001143818370470A460021818B48F6FF73B3
:1021F00019404FF6FF7303EA0223194381837047A6
:1022000021B1028842F08002028004E002884FF689
:102210007F731A400280704721B1828842F0040225
:10222000828004E082884FF6FB731A4082807047F8
:1022300021B1828842F00802828004E082884FF651
:10224000F7731A408280704721B1828842F0010200
:10225000828004E082884FF6FE731A4082807047C5
:102260000A460021018B4FF6F77319401143018391
:1022700070470A460021018B4FF2FF7319404FF659
:10228000FF7303EA02231943018370470A460021C2
:10229000818B4FF6F77319401143818370470A46CB
:1022A0000021818B4FF2FF7319404FF6FF7303EA51
:1022B00002231943818370470A460021018B4FF6A0
:1022C000FB7319401143018370470A460021018BBB
:1022D0004FF6FF3319404FF6FF7303EA0223194309
:1022E000018370470A460021818B4FF6FB7319402A
:1022F0001143818370470A460021818B4FF6FF33DB
:1023000019404FF6FF7303EA022319438183704794
:102310000A460021018B4FF67F7319401143018358
:1023200070470A460021018BC1F30E014FF6FF737F
:1023300003EA02231943018370470A460021818B77
:102340004FF67F7319401143818370470A4600217D
:10235000818BC1F30E014FF6FF7303EA0223194389
:10236000818370470A460021018C4FF6FD731940A6
:102370001143018470470A460021018C4FF6F77320
:1023800019401143018470470A460021018C4FF621
:10239000DF7319404FF6FF7303EA021319430184F8
:1023A00070470A460021018C4FF67F7319404FF6A3
:1023B000FF7303EA02131943018470470A460021A0
:1023C000018C4FF6FF5319404FF6FF7303EA0223C7
:1023D0001943018470470A460021018C4FF2FF73B4
:1023E00019404FF6FF7303EA022319430184704733
:1023F0000A460021018C4DF6FF7319404FF6FF731A
:1024000003EA023319430184704730B500230124E5
:102410008C40A3B2048C9C430484048C02FA01F522
:10242000ADB22C43048430BD30B5002304248C406D
:10243000A3B2048C9C430484048C02FA01F5ADB26F
:102440002C43048430BD70B5034600200024184698
:10245000183001258D40ACB21D8CA5431D8409B1F7
:10246000082909D100EB6100056825F070050560B9
:102470000568154305600EE00D1FC5F34E052844A1
:10248000056825F4E045056005684FF6FF7606EA25
:1024900002263543056070BD21B1028842F0020278
:1024A000028004E002884FF6FD731A4002807047F4
:1024B00021B1028842F00402028004E002884FF653
:1024C000FB731A400280704721B1828842F080027B
:1024D000828004E082884FF67F731A4082807047C2
:1024E00002884FF6F7731A40028002880A4302807E
:1024F000704782884FF68F731A40828082880A4321
:102500008280704702894FF6F8731A40028102896F
:102510000A430281704702894FF67F731A40028195
:1025200002890A4302817047818470478185704720
:10253000818670470187704781877047A0F84010F7
:10254000704702884FF6FF431A40028002880A4310
:10255000028070470146888E70470146088F704799
:102560000146888F70470146B1F840007047014628
:10257000888C70470146088D704702460020138AF8
:102580000B400BB1012000E000207047CA430282DB
:10259000704730B50246002000230024158A05EA62
:1025A0000103958905EA010413B10CB1012000E093
:1025B000002030BDCA4302827047000001684FF618
:1025C000FE72114001600021016041608160C160C4
:1025D0008D49884208D18C490839496841F00F017A
:1025E000894A083A51608AE087491431884208D103
:1025F00085490839496841F0F001834A083A516039
:102600007DE081492831884208D17F4908394968ED
:1026100041F470617C4A083A516070E07A493C317B
:10262000884208D178490839496841F47041764AAE
:10263000083A516063E074495031884208D17249C8
:102640000839496841F470216F4A083A516056E0F0
:102650006D496431884208D16B490839496841F4B1
:102660007001694A083A516049E067497831884207
:1026700008D165490839496841F07061624A083AF1
:1026800051603CE06149884206D1011F096841F070
:102690000F01021F116032E05C491431884208D1F9
:1026A0005A49091F096841F0F001584A121F116088
:1026B00025E056492831884208D15449091F096844
:1026C00041F47061514A121F116018E04F493C31CA
:1026D000884208D14D49091F096841F470414B4AAD
:1026E000121F11600BE049495031884207D1474918
:1026F000091F096841F47021444A121F1160704794
:1027000010B50022026847F6F0739A430C6A8B6892
:1027100023430C6923434C6923438C692343CC69CD
:1027200023434C6A23438C6A23431A430260CB68D9
:1027300043600B6883604B68C36010BD002101607B
:1027400041608160C160016141618161C16101627B
:1027500041628162704721B1026842F00102026069
:1027600004E002684FF6FE731A40026070471AB127
:1027700003680B43036002E003688B430360704708
:10278000416070470146486880B2704701460020AA
:10279000002201F080531BB11C4B083B1A6802E079
:1027A000194B083B1A6802EA01030BB1012000E053
:1027B0000020704700F0805119B11449091F0860CA
:1027C00002E01149083948607047014600200022A4
:1027D00001F080531BB10D4B083B1A6802E00A4B15
:1027E000083B1A6802EA01030BB1012000E0002057
:1027F000704700F0805119B10449091F086002E0D8
:102800000149083948607047080002400804024046
:1028100010B501214807FEF714FD00214FF00050CC
:10282000FEF70FFD10BD30B5002200235A4C226880
:1028300040F6FE748440A243D1E900452C438D68E4
:102840002C43CD6844EA050303FA00F42243524CBA
:10285000226030BD0021016041608160C16070472D
:1028600039B14D4A1268012383401A434A4B1A601A
:1028700006E0494A1268012383409A43464B1A6096
:10288000704741B1444A12684FF4805383401A4361
:10289000414B1A6007E0404A12684FF4805383406E
:1028A0009A433D4B1A60704710B551B13A4A121D18
:1028B000126804090123A3401A43374B1B1D1A60F9
:1028C00009E0354A121D126804090123A3409A4306
:1028D000314B1B1D1A6010BD40B12F49091D0968FD
:1028E00041F003012C4A121D116007E02A49091D1D
:1028F000096821F00301284A121D1160704710B5C4
:102900003AB1254B1B6801FA00F42343224C2360A3
:1029100006E0214B1B6801FA00F4A3431E4C236020
:1029200010BD08B5002200921B4A009200F1080277
:10293000009B1A440092009A116008BD08B500225D
:102940000092154A009200F11402009B1A44009272
:10295000009A116008BD30B500240023082802D178
:1029600042EA012401E042EA01440B4B00F1200558
:102970002B441C6030BD08B501460020009006487D
:1029800000902C2000EB9100009A104400900098D9
:10299000006880B208BD000000740040704700006D
:1029A0000FB4044910B503AA029800F0B1F910BCA5
:1029B0005DF814FBA81000202DE9F0410E460446F6
:1029C000002020622046E168884730B3252805D0E2
:1029D000D4E901219047206A401CF2E7E1682046D3
:1029E00000278847050018D0A5F14100192802D812
:1029F00020354FF400673246294620462760FDF710
:102A0000D3FB40B1012804D0F61D26F00706083696
:102A1000D8E7361DD6E72846DAE7206ABDE8F08118
:102A200070B50C460546012A05D02878800600D5E9
:102A3000EA69002302E0012305E05B1C934202D215
:102A4000E05C0028F9D1A869E618C01AA861286AD4
:102A5000184428622846AFF3008004E0D5E901213C
:102A600014F8010B9047B442F8D32846AFF3008026
:102A700070BD00002DE9F04106460024106875295C
:102A8000314616A510D0AFF30080002802DA40428C
:102A900013A507E031688A0701D512A502E04907AE
:102AA00004D511A5012401E0AFF3008000210A2222
:102AB00006F1240709E0B0FBF2FCB0FBF2F302FBE5
:102AC0001C00303078541846491C0028F3D12346A6
:102AD0002A463046BDE8F04100F0AAB800000000E8
:102AE0002D0000002B0000002000000070B50646FD
:102AF00000F09AF80468054630460A22002100F0EA
:102B000019F92C6070BD0000014A00F04BB90000BB
:102B1000C8100020032A40F2308010F0030C00F0AF
:102B2000158011F8013BBCF1020F624498BF11F807
:102B300001CB00F8013B38BF11F8013BA2F10402C0
:102B400098BF00F801CB38BF00F8013B11F0030338
:102B500000F04A81083AC0F0088051F8043B083A76
:102B600051F804CBA0E80810F5E7121D5CBF51F83E
:102B7000043B40F8043BAFF30080D20724BF11F8B8
:102B8000013B11F801CB48BF11F8012B24BF00F81D
:102B9000013B00F801CB48BF00F8012B7047000053
:102BA0004FF0013C50F8042B51F8043B9A4221D1DC
:102BB000A2EB0C03934313EACC1317D150F8042B68
:102BC00051F8043B9A4215D1A2EB0C03934313EA4C
:102BD000CC130BD150F8042B51F8043B9A4209D185
:102BE000A2EB0C03934313EACC13DBD04FF00000AD
:102BF000704700BFD01A01BAB1FA81F101F0180193
:102C000022FA01F0CB40C1F12001DBB2C0B2C01A00
:102C10002CFA01F3D11A914311EAC311E6D170479E
:102C20007047704770477047004870479411002004
:102C30002DE9F0470D4699469246044600F12408D6
:102C40000168880604D5E06921F01001216000E0E8
:102C50000120A84201DD471B00E00027A1697A1985
:102C600002EB0900081AA0612078C00602D42046B1
:102C7000AFF30080002608E0D4E901211AF806002D
:102C80009047206A401C761C20624E45F4DB207879
:102C9000C0060AD52046AFF3008006E0D4E9012142
:102CA00030209047206A401C2062381EA7F101079F
:102CB000F4DC07E0D4E9012118F805009047206A08
:102CC000401C2062281EA5F10105F3DC2046AFF36D
:102CD00000802078000602D50220BDE8F0870120A0
:102CE000FBE710B5436913B1AFF3008001E0FFF7D4
:102CF00097FE012010BD127800F124010A70002215
:102D00004A700122EDE711684FF0FF32E9E7000059
:102D1000074B70B50D467B4400F0A9F804462846E1
:102D200000F007F910B14FF0FF3070BD204670BDC4
:102D3000E1DBFFFF2DE9F04791460F468046044650
:102D4000002614F8015B2DB100F084F80068405DA6
:102D5000C007F6D12B2D02D02D2D18D0641E4A4667
:102D60003946204600F096F827B13968A14201D1D2
:102D7000C7F800804FF0020471050BD540420028CF
:102D800003DDFFF751FF0460A007BDE8F08746F4BC
:102D90008066E4E70028F8DAFFF746FF04606FF08A
:102DA0000040F2E72DE9F04115460E46040002D13D
:102DB0002C6804B90BA4204600F0CFF80444207816
:102DC00070B127463146384600F0B7F80444207801
:102DD00010B1002004F8010B38462C60BDE8F081EA
:102DE0000027F9E70000000010B5203AC0F00B8082
:102DF000B1E81850203AA0E81850B1E81850A0E8FF
:102E00001850BFF4F5AF5FEA027C24BFB1E8185058
:102E1000A0E8185044BF18C918C0BDE810405FEAC8
:102E2000827C24BF51F8043B40F8043B08BF704744
:102E3000D20728BF31F8023B48BF11F8012B28BF49
:102E400020F8023B48BF00F8012B7047004870474C
:102E50009411002010B500F0B3F8001D10BD00BFA4
:102E60009901000001694A1C02610878704700B5A9
:102E70008FB0CDE901310021059105497944CDE9B3
:102E8000031011466846FFF797FD0FB000BD000024
:102E9000E5FFFFFF2DE9F05F824615468B460027D0
:102EA0000AF10104B9460078302801D09DB113E041
:102EB00014F8010B0127782803D0582801D045B118
:102EC0000AE00DB1102D07D1002714F8010B1025D1
:102ED00002E0082500E00A250026B0460EE005FBCA
:102EE000080005FB06F101271FFA80F801EB1046E8
:102EF000B6F5803F00D3B94614F8010B294600F01F
:102F000063F80028EBDABBF1000F05D00FB1641EA7
:102F100000E05446CBF80040B9F1000F06D0FFF7AF
:102F200083FE02210160C81EBDE8F09F48EA06400A
:102F3000FAE7007B00F08000704730B503461D784B
:102F40001DB10A4603E0AC4201D1181A30BD12F897
:102F5000014B002CF7D15B1CF1E730B503461D781F
:102F60003DB10A4612F8014B1CB1AC42FAD15B1CD0
:102F7000F5E7181A30BD7546FFF768FFAE46050045
:102F80006946534620F00700854618B020B5FDF786
:102F900003FEBDE820404FF000064FF000074FF061
:102FA00000084FF0000B21F00701AC46ACE8C00967
:102FB000ACE8C009ACE8C009ACE8C0098D46704770
:102FC00000487047B41100203A2800D2303820F071
:102FD0002002412A01D3A2F13700884201D34FF0E9
:102FE000FF30704710B50446AFF300802046BDE8BF
:102FF0001040FDF7FAB8000010B500290AD0087893
:10300000002807D005487844FFF7CAFD002801D002
:10301000002010BD0248784410BD0000A205000049
:103020009A05000090EA010F48BF81F0004100F1CD
:103030003C82421A3CBF801A89184FEAD0524FF0A6
:103040007F4C1CEA410FA2EBD15318BF9CEA026FE0
:1030500000F03B804FF0004C4CEA00204CEA01218C
:1030600021FA03FC10EB0C0C1ED202F1FF325FEAD6
:103070001C2040EBC25038BF70471CF07F0F4FEA56
:10308000400C18BFBCF17F4F38BF7047C3F120031D
:10309000994008BF20F00100BCF17F4F38BF704756
:1030A000A0F1C04000F0F5B94FEA3C00000A40EB47
:1030B000C25028BF1CF0FF0F4FEA400CE6D018BFEB
:1030C000BCF17F4F38BF7047EAE79CEA026F05D03A
:1030D00010EA5C0F08BF00F00040704710B500F028
:1030E00092F900BF64FBBE3E4FF47F0C1CEAD01285
:1030F0001EBF1CEAD11392EA0C0F93EA0C0F00F0EA
:10310000858090EA010F48BF42F4807240F4000CC1
:1031100041F400002CF07F4120F07F4000B5814257
:10312000A2EB03020FF2081CACEB504EC0F1000002
:103130009EF800E04FEA4E0E00FB0EFC38BF49003F
:103140004FEA2C1C02F5FA020CFB0EF34FEACE1EDE
:103150004FEA112C4FEAC1210EEB635E42EB224293
:103160000EFB0CFC4FEA1C5300FB03114FEA112C21
:103170004FEA01310EFB0CFC4FEADC4C00FB0C115A
:10318000C14228BF09184CEB03335DF804EB10EB88
:10319000410143EBC250B2F57C0F38BF704729D5CF
:1031A00012F0F00F1CBF00F1C04000F0004070476B
:1031B000008182838485868788898B8C8D8E8F9110
:1031C0009293959697999A9C9D9FA0A2A3A5A7A834
:1031D000AAACAEB0B2B3B5B7B9BCBEC0C2C5C7C960
:1031E000CCCED1D4D7D9DCDFE2E6E9ECF0F3F7FAC4
:1031F000FE0000004FEA400C0CF1807CBCF17E4FD9
:1032000028BF7047B0F1C04000F043B990EA010F09
:103210000CEAD11348BF42F48072624538BF63455F
:1032200007D213F47F0F16D080EA010000F00040AF
:10323000704710B500F0E7F8097EFC3E00F005B8D5
:1032400080EA010000F00040704780EA010000F0D1
:10325000004000F01EB912F47F0F04BF024870470F
:1032600080EA010000F015B90000C07FC10DD1F166
:103270009E0206DB4FEA002343F0004323FA02F0EC
:103280007047004207D54FEA4001B1F1FE4F02D22C
:103290004FF00000704710B500F0B5F84992248057
:1032A000002070476FEA20007047000010F00041D6
:1032B00048BF4042B0FA80F310FA03F2C3F19D0315
:1032C0000BD051EAC35101EB1220530638BF7047AF
:1032D00000F1010008BF20F001007047B0FA80F350
:1032E00010FA03F2C3F19D030AD0D90501EB1220B5
:1032F000530638BF704700F1010008BF20F00100FD
:10330000704700004FF47F0C1CEAD0121EBF1CEA6D
:10331000D11392EA0C0F93EA0C0F00F0478090EA69
:10332000010F48BF42F480724FF0004C4CEA00207D
:103330004CEA012102EB0302A0FB0113A2F50002FB
:10334000002918BF43F001035B0028BF4FEA330395
:1033500042EB22425FEA132C4CEBC2502EBFBCEB77
:10336000436FB2F57C0F70474FEA036CBCF1004F1E
:1033700008BF20F00100B2F57C0F38BF70470BD5B5
:1033800082F0FF0212F5803FC8BF704700F1C040D5
:10339000D8BF00F00040704700F5000C5FEA4C0C0D
:1033A00048BF7047B0F1C04000F073B890EA010F19
:1033B0000CEAD11348BF42F48072624538BF6345BE
:1033C00004D280EA010000F00040704710B500F020
:1033D0001AF800BF8900013E00F007B800F009B8F4
:1033E0005FEA410C5FEA1C6C08D080EA010000F043
:1033F00050B85FEA400C5FEA1C6CF6D14FF0004019
:10340000A0F5800070470EF1020E2EF0030E5EF85C
:10341000044B244204D44FEA4102B2F17F4F11D849
:103420004FEA4003B3F17F4F0CD80ED14FEAD07C66
:10343000B2F17F4F0CEB4C0C0CF1020C08BF4CEBC3
:10344000D17C04E04FF0080C01E04FEAD17C0CEB9A
:103450004C0324FA03F404F00704B4F1040C06D27C
:103460000EEB840CBDE810404CF0010C6047DFE827
:103470000CF0070802024FF00040A0F5800010BDDC
:103480000846420018BFD2F1807288BF00F00040A9
:1034900010BDFF2141EAD050C005704790EA010FEE
:1034A00048BF81F000413FF5C4AD421A04D882F014
:1034B0000042A0EB020011444FEAD0524FF07F4C83
:1034C0001CEA410FA2EBD15318BF9CEA026F4AD00D
:1034D0004FF0004C4CEA00204CEA012121FA03FC99
:1034E000B0EB0C0C0FD412F0FE0F36D05FEA4C009C
:1034F0001DD5001240EBC25038BF70471CF03F0F83
:1035000018BF70470BE0A2F101025FEA1C2040EBFC
:10351000C25038BF70471CF07F0F18BF7047C3F10F
:103520002003994014BF401E20F00100704780081E
:103530004FEA122308BF7047B0FA80FCA2EB0C02DE
:10354000CCF1280C60FA0CF093EA122F04BF00EBC8
:10355000C25070474FEAC3707047130A5FEADC102D
:1035600008BF7047F6E79CEA026F04D010EA5C0FD0
:1035700008BF0020704710B5FFF745FF40DFF63E5B
:1035800081F0004070470000B836000800000020BD
:10359000CC10000028010008483F0008CC10002093
:1035A0002C0700008C0100081001000043000000FF
:1035B000F8FFFFFF00404040404040404040414154
:1035C00041414140404040404040404040404040F8
:1035D0004040404040050202020202020202020292
:1035E000020202020220202020202020202020028F
:1035F000020202020202909090909090101010101F
:1036000010101010101010101010101010101010BA
:10361000020202020202888888888888080808084E
:10362000080808080808080808080808080808081A
:103630000202020240000000000000000000000042
:10364000000000000000000000000000000000007A
:10365000000000000000000000000000000000006A
:10366000000000000000000000000000000000005A
:10367000000000000000000000000000000000004A
:10368000000000000000000000000000000000003A
:10369000000000000000000000000000000000002A
:1036A000000000000000000000000000000000001A
:1036B0000000000000000000500600A24A040001C3
:1036C000108A01020304060708090008CB089509BF
:1036D0005B0A1B0BD30B810C240DB90D400EB70EEA
:1036E0001E0F710FB20FE00FF90FFE0FEF0FCC0F8F
:1036F000940F4A0FED0E7E0EFF0D700DD40C2B0CA7
:10370000780BBC0AF909310966089907CE06060646
:1037100043058704D4032B038F02000281011201A9
:10372000B5006B0033001000010006001F004D00C3
:103730008E00E1004801BF014602DB027E032C043B
:10374000E404A4056A063407FF070026101C2000C5
:103750003000400050006000700080009000A00029
:10376000B000C000D000E000F0A900FF0010012070
:10377000013101410151016101710181019101A1F9
:1037800001B101C101D101E101F1010102110221E7
:10379000023102410251026102710281029102A1D1
:1037A00002B102C102D102E102F1020103110321BF
:1037B000033103410351036103720382039203A2A5
:1037C00003B203C203D203E203F20302041204228F
:1037D000043204420452046204720482049204A279
:1037E00004B204C204D204E204F204020512052267
:1037F000053205420552056205720582059205A251
:1038000005B205C305D305E305F305030613062337
:10381000063306430653066306730683069306A320
:1038200006B306C306D306E306F30603071307230E
:10383000073307430753076307730783079307A3F8
:1038400007B307C307D307E307F3070408140824E3
:10385000083408440854086408740884089408A4C8
:1038600008B408C408D408E408F40810E0040914F3
:103870000924093409440954096409740984099420
:1038800009A409B409C409D409E409F409040A140F
:103890000A240A340A440A550A650A750A850A95F3
:1038A0000AA50AB50AC50AD50AE50AF50A050B15DF
:1038B0000B250B350B450B550B650B750B850B95C8
:1038C0000BA50BB50BC50BD50BE50BF50B050C15B7
:1038D0000C250C350C450C550C650C750C850C969F
:1038E0000CA60CB60CC60CD60CE60CF60C060D1687
:1038F0000D260D360D460D560D660D760D860D9670
:103900000DA60DB60DC60DD60DE60DF60D060E165E
:103910000E260E360E460E560E660E760E860E9647
:103920000EA60EB60EC60ED60EE70EF70E070F1732
:103930000F270F370F470F570F670F770F870F9717
:103940000FA70FB70FC70FD70FE70FF70212E70A3E
:1039500012C71212A71A12872212672A12473212AE
:10396000273A1004070FF74612D64E12B656129693
:103970005E12766612566E1236761006160E060E19
:10398000F68612D68E12B69612969E1276A612560B
:10399000AE1236B61006160D060DF6C612D6CE12AB
:1039A000B6D61296DE1275E61255EE1235F61406EC
:1039B000150C050CF50616D50E16B51616951E1621
:1039C000752616552E1635361406150B050BF546BD
:1039D00016D54E16B55616955E16756616556E16A4
:1039E00034761406140A040AF48616D48E16B49695
:1039F00016949E1674A61654AE1634B61406140900
:103A00000409F4C616D4CE16B4D61694DE1674E69F
:103A10001654EE1634F6180614080408F3061AD3E2
:103A20000E1AB3161A931E1A73261A532E1A333609
:103A3000180613070307F3461AD34E1AB3561A9300
:103A40005E1A73661A536E1A337618061306030647
:103A5000F3861AD38E1AB2961A929E1A72A61A5228
:103A6000AE1A32B6180612050205F2C61AD2CE1ADE
:103A7000B2D61A92DE1A72E61A52EE1A32F61C0604
:103A800012040204F206031ED20E031EB216031E17
:103A9000921E031E7226031E512E031E3136031C76
:103AA0000611030103F146031ED14E031EB1560356
:103AB0001E915E031E7166031E516E031E31760356
:103AC0001C0611020102F186031ED18E031EB1965F
:103AD000031E919E031E71A6031E51AE031E31B636
:103AE000031C0610010001F0C6031ED0CE031EB059
:103AF000D6031E90DE031E70E6031E50EE031E303A
:103B0000F6031E10880403FFFF0F0201FB0202FFF1
:103B1000000101FE011E0802081E1804081E2806E6
:103B2000081E3808081E480A081E580C081E680E91
:103B3000081E7810081E8812081E9814081EA81661
:103B4000081EB818081EC81A081ED81C081EE81E31
:103B5000081EF820081E0822081E1824081E282601
:103B6000081E3928081E492A081E592C081E692ECD
:103B7000081E7930081E8932081E9934081EA9369D
:103B8000081EB938081EC93A081ED93C081EE93E6D
:103B9000081EF940081E0942081E1944081E29463D
:103BA000081E3948081E494A081E594C081E694E0D
:103BB000081E7950081E8952081E9954081EA956DD
:103BC000081EB958081EC95A081ED95C081EE95EAD
:103BD000081EF960081E0962081E1964081E29667D
:103BE000081E3968081E496A081E596C081E696E4D
:103BF000081E7A70081E8A72081E9A74081EAA7619
:103C0000081EBA78081ECA7A081EDA7C081EEA7EE8
:103C1000081EFA80081E0A82081E1A84081E2A86B8
:103C2000081E3A88081E4A8A081E5A8C081E6A8E88
:103C3000081E7A90081E8A92081E9A94081EAA9658
:103C4000081EBA98081ECA9A081EDA9C081EEA9E28
:103C5000081EFAA0081E0AA2081E1AA4081E2AA6F8
:103C6000081E3AA8081E4AAA081E5AAC081E6AAEC8
:103C7000081E7AB0081E8AB2081E9AB4081EAAB698
:103C8000081C0ABA05C205CA05D205DBBC081EEB32
:103C9000BE081EFBC0081E0BC2081E1BC4081E2B3C
:103CA000C6081E3BC8081E4BCA081E5BCC081E6B0C
:103CB000CE081E7BD0081E8BD2081E9BD4081EABDC
:103CC000D6081EBBD8081ECBDA081EDBDC081EEBAC
:103CD000DE081EFBE0081E0BE2081E1BE4081E2B7C
:103CE000E6081E3BE8081E4BEA081E5BEC081E6B4C
:103CF000EE081E7BF0081E8BF2081E9BF4081EAB1C
:103D0000F6081EBBF8081ECBFA081EDBFC081EEBEB
:103D1000FE081C16FB0703080B0813081B082308E2
:103D20002B0833083B0843084B0A091E5C0C091E8C
:103D30006C0E091E7C10091E8C12091E9C14091E93
:103D4000AC16091EBC18091ECC1A091EDC1C091E63
:103D5000EC1E091EFC20091E0C22091E1C24091E33
:103D60002C26091E3C28091E4C2A091E5C2C091E03
:103D70006C2E091E7C30091E8C32091E9C34091ED3
:103D8000AC36091EBC38091ECC3A091EDC3C091EA3
:103D9000EC3E091EFC40091E0C42091E1C44091E73
:103DA0002C46091E3C48091C164C0A540A5C0A643D
:103DB0000A6C0A740A7C0A840A8C0A940A9C5409C4
:103DC0001EAD56091EBD58091ECD5A091EDD5C09DF
:103DD0001EED5E091EFD60091E0D62091E1D6409AF
:103DE0001E2D66091E3D68091E4D6A091E5D6C097F
:103DF0001E6D6E091E7D70091E8D72091E9D74094F
:103E00001EAD76091EBD78091ECD7A091EDD7C091E
:103E10001EED7E091EFD80091E0D82091E1D8409EE
:103E20001E2D86091E3D88091E4D8A091E5D8C09BE
:103E30001E6D8E091E7D90091C1A8D0C950C9D0C13
:103E4000A50CAD0CB50CBD0CC50CCD0CD50CDD0C0A
:103E5000E50CED9E091EFEA0091E0EA2091E1EA461
:103E6000091E2EA6091E3EA8091E4EAA091E5EACFA
:103E7000091E6EAE091E7EB0091E8EB2091E9EB4CA
:103E8000091EAEB6091EBEB8091ECEBA091EDEBC9A
:103E9000091EEEBE091EFEC0091E0EC2091E1EC46A
:103EA000091E2EC6091E3EC8091E4ECA091E5ECC3A
:103EB000091E6ECE091E7ED0091E8ED2091E9ED40A
:103EC000091EAED6091EBED8091ECEDA091C26DE92
:103ED0000EE60EEE0EF60EFE0E060F0E0F160F1E5F
:103EE0000F260F2E0F360F3E0F460F4E0F560F5E4A
:103EF0000F660F6EEE091E7FF0091E8FF2091E9FDE
:103F0000F4091EAFF6091EBFF8091ECFFA091EDF1D
:103F1000FC091EEFFE095D02060D7F840C01FF0106
:103F200001FF0101FF010D7A03083D9810CC044008
:103F3000003719081201016DAB106DAF103005028A
:083F4000040608AE00000000B9
:04000005080000ED02
:00000001FF
